:020000040800F2
:1000000020080020A1010008BF3000089522000848
:10001000BD300008150D0008513500080000000033
:10002000000000000000000000000000D9320008BD
:10003000170D000800000000C1300008DB32000886
:10004000BB010008BB010008BB010008BB010008A0
:10005000BB010008BB010008BB010008BB01000890
:10006000BB010008BB010008BB010008BB01000880
:10007000BB010008BB010008BB010008BB01000870
:10008000BB010008BB010008BB010008BB01000860
:10009000BB010008BB010008BB010008BB01000850
:1000A000BB010008BB010008BB010008BB01000840
:1000B000BB010008BB010008BB010008A522000825
:1000C00099220008BB010008BB010008BB01000821
:1000D000BB01000845350008BB010008BB01000852
:1000E000BB010008BB010008BB01000800F002F8DA
:1000F00000F047F80AA090E8000C82448344AAF17B
:100100000107DA4501D100F03CF8AFF2090EBAE878
:100110000F0013F0010F18BFFB1A43F0010318473B
:100120005C3500007C350000103A24BF78C878C1E7
:10013000FAD8520724BF30C830C144BF04680C60ED
:10014000704700000023002400250026103A28BF35
:1001500078C1FBD8520728BF30C148BF0B60704739
:10016000642900F07D80002070471FB59DE80300E2
:1001700000F0A2FB00F094F91FBD10B500F0F9F9F2
:1001800010BD00F05CFA1146FFF7EFFF03F0FEF937
:1001900000F060FB03B4FFF7F0FF03BC00F01EFDAE
:1001A0000948804709480047FEE7FEE7FEE7FEE70B
:1001B000FEE7FEE7FEE7FEE7FEE7FEE70448054947
:1001C000054A064B704700002F330008ED00000879
:1001D000200200202008002020040020200400200D
:1001E0000FB4044910B503AA029800F02BF910BC13
:1001F0005DF814FB180100202DE9F0410E4604467D
:10020000002020622046E168884730B3252805D0C9
:10021000D4E901219047206A401CF2E7E1682046BA
:1002200000278847050018D0A5F14100192802D8F9
:1002300020354FF400673246294620462760FFF7F5
:100240008FFF40B1012804D0F61D26F007060836BE
:10025000D8E7361DD6E72846DAE7206ABDE8F08100
:100260002DE9F0410646002410687529314616A58F
:1002700010D0AFF30080002802DA404213A507E057
:1002800031688A0701D512A502E0490704D511A5F6
:10029000012401E0AFF3008000210A2206F12407C7
:1002A00009E0B0FBF2FCB0FBF2F302FB1C003030C3
:1002B00078541846491C0028F3D123462A46304674
:1002C000BDE8F04100F064B8000000002D0000001F
:1002D0002B0000002000000010B5203AC0F00B8079
:1002E000B1E81850203AA0E81850B1E81850A0E83A
:1002F0001850BFF4F5AF5FEA027C24BFB1E8185094
:10030000A0E8185044BF18C918C0BDE810405FEA03
:10031000827C24BF51F8043B40F8043B08BF70477F
:10032000D20728BF31F8023B48BF11F8012B28BF84
:1003300020F8023B48BF00F8012B70474FF0000245
:1003400000B5134694469646203922BFA0E80C50CB
:10035000A0E80C50B1F12001BFF4F7AF090728BFA6
:10036000A0E80C5048BF0CC05DF804EB890028BF22
:1003700040F8042B08BF704748BF20F8022B11F04B
:10038000804F18BF00F8012B7047704770477047C7
:100390002DE9F0470D4699469246044600F124089F
:1003A0000168880604D5E06921F01001216000E0B1
:1003B0000120A84201DD471B00E00027A1697A194E
:1003C00002EB0900081AA0612078C00602D420467A
:1003D000AFF30080002608E0D4E901211AF80600F6
:1003E0009047206A401C761C20624E45F4DB207842
:1003F000C0060AD52046AFF3008006E0D4E901210B
:1004000030209047206A401C2062381EA7F1010767
:10041000F4DC07E0D4E9012118F805009047206AD0
:10042000401C2062281EA5F10105F3DC2046AFF335
:1004300000802078000602D50220BDE8F087012068
:10044000FBE70000074B70B50D467B4400F011F848
:100450000446284600F020F810B14FF0FF3070BD80
:10046000204670BD2731000001694A1C02610878EE
:10047000704700B58FB0CDE90131002105910549E4
:100480007944CDE9031011466846FFF7B5FE0FB079
:1004900000BD0000E5FFFFFF007B00F0800070471B
:1004A00010B542485421FFF749FF41485421FFF756
:1004B00045FF40485421FFF741FF3F493B483C4A34
:1004C0003F4B08603D490A603A491960531C036577
:1004D000481C1065012008653B48344A39A178441E
:1004E00000F01CF920B9384878440A3800F0BBF90C
:1004F00037482F4A35A1784400F010F920B9344824
:1005000078440A3800F0AFF932482A4A2FA17844DB
:1005100000F004F920B92F4878440A3800F0A3F914
:1005200040232248DC000021224600F0D4F820B10C
:1005300025487844543800F096F91D482246402357
:10054000002100F0C8F820B121487844543800F068
:100550008AF9184822461023002100F0BCF8002830
:1005600006D01C487844BDE81040563800F07BB9EE
:1005700010BD104870B5006D20F001040B4800F06C
:1005800043F90B4800F040F90A4800F03DF909E052
:10059000206D20F00105204600F036F9204600F0DD
:1005A00073F82C46002CF3D170BD0000C40000206D
:1005B000180100206C010020100000201400002011
:1005C00018000020720000008E310000770000004B
:1005D0007A310000663100000EB5CDE9000100F06F
:1005E000DDFA029069460120ABBE0EBD08B5694632
:1005F00000900220ABBE08BD1FB58DE8070069461C
:100600000520ABBE04B010BD1FB58DE80F006946D4
:100610000620ABBEF6E708B5694600900920ABBEE0
:1006200008BD1CB5CDE9000169460A20ABBE1CBD62
:10063000704708B5694600900C20ABBE08BD7546F2
:1006400000F018F9AE4605006946534620F0070051
:10065000854618B020B5FFF7B1FDBDE820404FF04A
:1006600000064FF000074FF000084FF0000B21F09C
:100670000701AC46ACE8C009ACE8C009ACE8C00969
:10068000ACE8C0098D46704770B50446051F00F000
:10069000F7F80068002C14BF446870BD002C18BF28
:1006A000AC423CBF20466468F8D301680A18AA42ED
:1006B00018BF456003D12A680546114401602868C7
:1006C0004119A1421CBF6C6070BD616869602168FE
:1006D0000844286070BD70B5C468A50713D06502D2
:1006E00011D4B2F5807F09D0B2F5007F06D0B2F503
:1006F000806F08D1012300F1240106E05D1E6FF038
:100700007F46B54201D3012070BD0161C3614160E4
:1007100024F470611143C160002070BD2DE9F041E7
:100720000C4607461646104600F06EF82078611C0D
:1007300061280AD0722802D077283CD102E0012536
:10074000002405E00225042402E0082448F2020502
:1007500011F8010B2B2806D0622809D011F8010CE2
:1007600074280AD00BE045F0030544F00204EFE7DB
:1007700045F0040544F00104EAE744F0100438466B
:100780002146FFF729FF411C15D00021316171601E
:100790004FF40071F560F1617061200704D53046B7
:1007A0000222002100F0E6F8306D40F001003065D3
:1007B0003046BDE8F0810020FBE72DE9F0410D4611
:1007C0000646104C206DC10704D0410804D020F02B
:1007D0000104F7E722460EE0542000F09CF80700E1
:1007E0000ED0206D47F001010843542120653846A2
:1007F000FFF7A4FD3A4629463046BDE8F0418DE7B3
:100800000020D6E7C40000202DE9F04704464FF051
:1008100000094FF0FF37C568D4E90486A80707D060
:10082000204600F057F93046FFF7E0FE002802DAD4
:100830003846BDE8F087280502D54046FFF724FF7B
:100840004C212046FFF77AFD206D20F00100206545
:100850004846EEE710B50446AFF300802046BDE8F9
:100860001040FFF797BC10B500F07EF9BDE81040CE
:1008700000F074B900487047C001002070470000C4
:1008800000487047C80100207047704770477047A4
:1008900038B504460A4600206946AFF300800028B8
:1008A00008BF38BD02460099204600F0A4F9012097
:1008B00038BD012000F0F3B9F8B5AFF3008005466C
:1008C00000200C46102000BF0646A819A0420DD9F2
:1008D000324669460020AFF30080070008BF00F0F1
:1008E000DEF90098A04218BF0546C419FFF7C8FFFB
:1008F00005600746F01D20F007004619284600F065
:1009000073F9B44208BFF8BDA21B31463868BDE890
:10091000F84000F070B970B50646FFF7B1FF056802
:1009200006F10B0020F00704B4429CBF002070BD0C
:100930002B466A68BAB11068A04210D304F10801CE
:1009400088423CBF5068586007D351681019416015
:100950001168091B016058601460101D70BD1346BA
:100960005268002AE7D121462846FFF791FF002868
:10097000DED170BD2DE9F041044616460D464769AB
:10098000007B80072ED03846FFF745FE50BB3EB3B4
:10099000012E02D0022E25D104E0204600F045F9B8
:1009A00005441DE03846FFF744FEE168002841F0A9
:1009B0001001E16005DA204600F058F80120BDE89A
:1009C000F081C9030BD56268E16A914200D81146F3
:1009D000A26911442269891A814200DD0846054452
:1009E000002D01DA0220EAE7E16A6068E2688142EC
:1009F00006D29103E06203D522F4003141F01002E7
:100A0000A6690027AE4213DCE16A814201D90B4698
:100A100000E0034603EB060C2369ACEB030CAC458A
:100A200006DD814201D98C4600E084469C4505D113
:100A3000A760276042F02000A5620DE0AD1BE669CB
:100A4000AE1B8142A66000D90846C01A281A206051
:100A50005819606022F0200003490840E06000203F
:100A600084F84870ABE70000BFCFD7FFC16821F41E
:100A7000001141F08001C160002181600160704778
:100A80002DE9F047814614460E464FF0FF383248B4
:100A9000D5685769054209D03846A169FFF7C1FDFD
:100AA000002811DB2C48C0430540E5602B46324648
:100AB00049463846FFF7A0FDA16920F00042B21A6E
:100AC00011440028A16103D02046FFF7CFFF404624
:100AD000BDE8F08770B504460569C06A6168884260
:100AE00000D80846E16821F42011E160C90312D55D
:100AF000A84208D02246411B2846FFF7C1FF10B18B
:100B00004FF0FF3070BD0020E562C4E90150E0689D
:100B100020F48030E060002070BD10B50446C0684D
:100B200020F02000E060A16AA06988420DD0204634
:100B3000FFF7D0FFE06820F4405040F01000E06084
:100B4000A06AA0612069E062606044F24001E06850
:100B50008843E06010BD000010000200002801D0B2
:100B600000F03CB87047000010B5014602A000F04C
:100B70007DF8012010BD00005349475254524544AE
:100B80003A2052656469726563743A2063616E2726
:100B900074206F70656E3A200000000010B5431C91
:100BA00002E010F8011B71B18107FAD14FF0013258
:100BB00002C88C1A8C4314EAC211F9D0C01A0A0672
:100BC00003D0C01E10BDC01A10BD0A0401D0801E83
:100BD00010BD0902FCD0401E10BD000001491820C4
:100BE000ABBEFEE72600020000210160C0E9011053
:100BF000704710207047034640688C46002818BF95
:100C000088423CBF03464068F8D3186818448842BD
:100C100007D00CF1030020F00700001D411A521A02
:100C20000146081D0A60FFF72FBD10B50146C268D6
:100C3000900703D0900607D5886A0AE000F03EF8D6
:100C400001210160881E10BD8B69486818440B693A
:100C5000C01A91F848301BB191F84910401A10BDE4
:100C60001103FCD50028FADD401E10BD70B5054605
:100C70000C460A2000E06D1C00F018F835B1287809
:100C80000028F8D102E0641C00F010F814B12078BC
:100C90000028F8D1BDE870400A2000F007B810B570
:100CA00000F010F8BDE81040FFF758BF08B56946DE
:100CB0008DF800000320ABBE08BD0000004870475F
:100CC000C001002010B5012805D0002103A0FFF7C6
:100CD000CDFF012010BD09A1F8E70000534947529C
:100CE000544D454D3A204F7574206F6620686561FC
:100CF00070206D656D6F7279000000003A204865C4
:100D00006170206D656D6F727920636F727275709E
:100D100074656400FEE7704710B590F8211000225A
:100D2000022905D00421816380F82020012010BD14
:100D300001680B6823F00E030B6001680B6823F059
:100D400001030B6090F84030C46B012101FA03F3FA
:100D5000636080F8211080F82020104610BD00004C
:100D600010B590F821100024022903D004218163DA
:100D700001243DE001680A6822F00E020A60016861
:100D80000A6822F001020A601A4A0168914201D100
:100D9000012121E0174A1432914201D110211BE0B8
:100DA000144A2832914201D1891515E0114A3C328A
:100DB000914201D189140FE00E4A5032914202D182
:100DC0004FF4803108E00B4A6432914202D14FF473
:100DD000801101E04FF08071064A083A516001210C
:100DE00080F82110002180F82010416B01B1884764
:100DF000204610BD0800024090F821007047000016
:100E000070B5044600F0FEF80546601C02D00448A8
:100E10000078044400F0F6F8401BA042FAD370BDFD
:100E2000000000202DE9F84FDFF8B891002409F107
:100E3000040A0AF1040B23460F270BF1040EC9E044
:100E40000125A5402A40AA427DD1674ED1F804C0B1
:100E5000ACEB0608B44532D014DCBCF1030F3AD039
:100E600009DCBCF1000F2AD0BCF1010F1CD0BCF191
:100E7000020F31D11DE0BCF1110F17D0BCF1120FE0
:100E80002AD119E0B8F5881F19D006DCB8F5803FE3
:100E900015D0B8F5801F1FD111E0B8F5001F0ED096
:100EA000B8F5041F18D10AE0CB6815E0CB681B1D0C
:100EB00012E0CB6808330FE0CB680C330CE08B6892
:100EC0002BB1012B4FF0080303D0456104E004234C
:100ED00002E0056100E00023FF2A01D8064601E098
:100EE00000F104064FEA840501D9A5F12005D6F8E2
:100EF000008007FA05FC28EA0C0803FA05F548EA21
:100F00000508C6F800804D68ED0062D5374DAE6922
:100F100046F00106AE61AD6924F0030605F0010557
:100F20000095334D06EB050CDCF80850A607360F8C
:100F300007FA06F825EA0805DFF8B880404503D12E
:100F40004FF0000817E044E0DFF8AC80404502D1E4
:100F50004FF001080FE0DFF8A480404502D14FF0C8
:100F6000020808E0DFF89880404502D14FF00308FE
:100F700001E04FF0040808FA06F848EA0508CCF842
:100F800008804D68D9F80060ED034D4601D5164341
:100F900000E096432E604D68DAF80060AD035546D8
:100FA00001D5164300E096432E604D68DBF80060E3
:100FB000ED025D4601D5164300E096432E604D6874
:100FC000DEF80060AD02754601D5164300E0964399
:100FD0002E60641C0D682A46E5407FF431AFBDE801
:100FE000F88F0000000401400000111000100240C2
:100FF0000000014000080140000C014000100140C9
:101000000014014001488068704700000000002083
:10101000704770472DE9F041016804464A694E68FF
:1010200090F83E000025D743FA050BD4F243D205D1
:1010300008D46FF4807201254A6121680A6842F47D
:1010400000420A60B90508D4F143C90505D42268F5
:101050006FF4007145F002055161790525D4F14323
:10106000C90522D4638D94F83D10226B202808D145
:101070003BB9212910D029290ED0282901D1212AB4
:101080000AD022686FF48061516145F00405102890
:1010900006D0402804D008E0204601F0F7FD04E027
:1010A0002068016841F400710160380508D4F043FC
:1010B000C00505D421686FF4006045F0080548615B
:1010C000002D07D0206C284320642046BDE8F04165
:1010D00001F04CB9BDE8F0812DE9F047026800212C
:1010E0005368C66A90F83E4090F83D50102C12D0DC
:1010F000402C10D0046C002C7DD05469E443A6072A
:101100007AD4DE43B60577D4036C03B19169BDE8A8
:10111000F04701F097BD976951694FF42A0CC94314
:101120005FEAC1784FF02A4904D066452AD04E457F
:1011300028D010E0DE43B6050DD4C16A614501D167
:10114000012103E0C16A494501D10821C162BDE81E
:10115000F04701F0B9BC0E0716D4DE43B60513D430
:10116000416CC9B21161416B09B1896A29B9816BBE
:10117000002907D0896A002904D00068416841F439
:1011800000614160BDE8F0878E0706D4DE43B605F6
:1011900003D4BDE8F04701F0EBBBFE43526876078D
:1011A0004FEA02521DD4002AECDB0A0608D4DA43C7
:1011B000520505D4490705D5BDE8F04701F07CBBD1
:1011C0004907DFD4D9438905DCD4212D05D0402C33
:1011D000D8D1BDE8F04701F0BDBCBDE8F04701F053
:1011E00029BB002ACEDB4A060BD4DA43520508D4C9
:1011F000490708D501E00DE00EE0BDE8F04701F039
:10120000E1B94907BED4D9438905BBD4BDE8F0474D
:1012100001F06FB9916970E7E10606D4D9438905F9
:1012200003D4BDE8F04701F073BD2821212D27D05C
:10123000292D25D0650655D4DD436D0552D46407AC
:1012400052D590F83D30448D002C9BD01269446AF1
:101250002270426A521C4262428D521E4285428D69
:10126000002A8FD12A2B8DD10268536823F4806322
:1012700053602222026380F83D1000F00BFB81E7EF
:10128000250623D4DD436D0520D4640720D590F8CE
:101290003D30448D002CF2D0446A24781461426AB7
:1012A000521C4262428D521E4285428D002AE6D176
:1012B000292BE4D10268536823F480635360212210
:1012C000026380F83D1000F0E6FA5BE76107D6D4D0
:1012D000D9438905D3D4418D0029D0D0416A0978FA
:1012E00011610AE06107CAD4D9438905C7D4418D89
:1012F0000029C4D01169426A1170416A491C4162D7
:10130000418D491E41853DE77047006C704790F85C
:101310003D00704770B5040025D094F83D000025CD
:1013200020B984F83C50204600F076FA242084F856
:101330003D002068016821F001010160206801681A
:1013400041F4004101602068016821F4004101601E
:1013500000F0D0FB4D4A6168914201D84C4900E051
:101360004C49884201D2012070BD4B492368B0FB33
:10137000F1F15E6826F03F060E435E6063689342BB
:1013800006D94FF4967359434FF47A73B1FBF3F1D6
:101390002368491C1E6A26F03F06314319626168C2
:1013A000914210D84900401EB0FBF1F2521CC2F32A
:1013B0000B02042A01D2042022E0B0FBF1F0401C11
:1013C000C0F30B001CE0A268F2B301EBC10303EB16
:1013D0000116431EB3FBF6F35B1C43F480431B056D
:1013E00049D092B301EBC10202EB0111401EB0FBE8
:1013F000F1F0401CC0F30B0040F4804040F400408A
:101400002168CA694CF6FF739A431043C861D4E956
:10141000071001432068026822F0C00211430160F6
:10142000D4E9030101432068826848F2FF339A43FC
:1014300011438160D4E9050108432168CA6822F09C
:10144000FF021043C86001E00EE016E0206801686A
:1014500041F0010101602564202084F83D002563EE
:1014600084F83E50002070BD01EB4106431EB3FBE3
:10147000F6F35B1CB3E70120C2E701EB4101401E1C
:10148000B0FBF1F0401CC0F30B00B7E7A0860100F1
:1014900080841E0000093D0040420F0070477047E5
:1014A000704700002DE9F84F0025DDF82890984698
:1014B00017468A4604460095FFF7A4FD064694F8B1
:1014C0003D0020287AD11923012283492046009625
:1014D00001F0F2FC0028F5D194F83C0001286DD011
:1014E000012084F83C0020680168C90703D1016825
:1014F00041F0010101602068016821F40061016090
:10150000222084F83D00102084F83E0025646762A4
:10151000A4F82A80608D20857048E06233464A46F0
:101520005146204601F0C2F800287DD1208DDFF819
:10153000B081202768B1012814D0022820680168F2
:101540001ED041F48061016020684169806900908B
:10155000B5E02068416981690091016841F400713A
:101560000160ACE02068016821F48061016072B61E
:101570002068416981690091016841F400710AE0C5
:1015800041F40061016072B620684169816900918F
:10159000016821F48061016062B690E0032868D898
:1015A00001280CD002284B464FF00002414620464D
:1015B00000960FD001F080FCB0BB10E08AE032460C
:1015C0004946204601F0F7FC70BB20680069616A5B
:1015D00008706BE001F070FC30BB72B634E020683C
:1015E000016821F48061016072B620680069616A57
:1015F0000870606A401C6062208D401E2085608DEE
:10160000401E6085374846F2A8110068B0FBF1F033
:10161000C0EBC00000EB80000090401E009008D09E
:1016200020684069C04300E029E040070CD50098DD
:10163000F3E744F8305F6773A573206940F020003A
:10164000206162B625731AE02068016841F40071D8
:10165000016020680069616A0870606A401C60620D
:10166000218D491E2185618D491E618562B62168E3
:101670001AE032464946204601F09DFC10B1012097
:10168000BDE8F88F20680069616A0870606A401CD4
:101690006062218D491E2185618D491E6185216809
:1016A0004A69D24352070AD409690170606A401C32
:1016B0006062208D401E2085608D401E6085208DDB
:1016C00000287FF46BAF84F83D7084F83E5084F8B6
:1016D0003C50D5E70220D3E7020010000000FFFFD6
:1016E000040001000C0000202DE9F84F1F46904631
:1016F0008A460446DDF82890FFF784FC054694F8F6
:101700003D0020287FD11923012240492046009521
:1017100001F0D2FB002876D194F83C00012872D069
:10172000012084F83C0020680168C90703D10168E2
:1017300041F0010101602068016821F4006101604D
:10174000212084F83D00102084F83E000026266405
:10175000C4F824806785608D20852D48E0622B4683
:101760004A465146204601F017F890B92068416971
:101770008069009036E02A464946204601F04EFC3A
:1017800050B1206C042804D12068016841F4007134
:1017900001600120BDE8F88F606A21680078086167
:1017A000606A401C6062618D491E6185218D491E01
:1017B00089B2218522685369DB435B070BD451B1A1
:1017C00000781061606A401C6062608D401E608518
:1017D000208D401E20852A464946204601F046FBC2
:1017E0000028CED1208D0028C5D154F83D0B0168CA
:1017F00041F400710160202004F81E09E677667745
:101800000020C7E7FFE70220C4E700000200100045
:101810000000FFFF7047704710B586B000210091AF
:101820000191029103910068174988422AD1174C0F
:10183000A06940F00800A061A069694600F00800B6
:101840000490C020009012200190032003901048C3
:10185000FFF7E8FAE06940F40010E061E069002277
:1018600000F40010049011461F2000F07BF81F20A8
:1018700000F06AF800221146202000F073F82020C2
:1018800000F062F806B010BD0054004000100240A5
:10189000000C01407047704702488168027811448B
:1018A0008160704700000020074810B5016841F0D2
:1018B00010010160032000F075F80F2000F006F819
:1018C00000F024F8002010BD0020024070B50D4D3E
:1018D00004464FF47A712878B1FBF0F00A490968A0
:1018E000B1FBF0F000F0ECFA48B9102C07D200225E
:1018F0002146501E00F036F800206C6070BD0120BB
:1019000070BD0000000000200C0000200C4808B54D
:10191000816941F001018161816901F0010100915A
:10192000C16941F08051C161C06900F080500090F0
:101930000448416821F0E06141F00071416008BD58
:101940000010024000000140002809DB00F01F02E7
:10195000012191404009800000F1E020C0F8001111
:1019600070470000F0B40E4B1B680C46C3F3022313
:10197000C3F10705042D00D90425191D072901D23B
:10198000002300E0DB1E012606FA05F1491E214076
:1019900099409E40761E16403143F0BC01F0D9BDFF
:1019A0000CED00E0064900F0070208684FF6FF035F
:1019B000184040EA0220034A1043086070470000C4
:1019C0000CED00E00000FA052DE9F0470F46050098
:1019D00061D0434E306800F00700B84209D2306849
:1019E00020F0070038433060306800F00700B8424C
:1019F00051D128683B4C810712D5400703D5606858
:101A000040F4E06060602878000703D5606840F427
:101A1000605060606068A96820F0F0000843606072
:101A20002878C00728D06868012810D021680228CB
:101A300010D0890700292EDA616821F003010143E3
:101A40006160FFF7DFFA804641F288390DE02168D6
:101A50008903EFE78901EDE7FFF7D4FAA0EB08016E
:101A6000494502D90320BDE8F0876068696800F045
:101A70000C00B0EB810FEFD1306800F00700B842E6
:101A80000BD9306820F0070038433060306800F030
:101A90000700B84201D00120E5E72878400705D5C6
:101AA0006068E96820F4E060084360602878000717
:101AB00006D56068296920F4605040EAC100606082
:101AC00000F038F86168084AC1F30311515CC8405E
:101AD0000649086006480068FFF7F8FE0020C2E7E4
:101AE0000020024000100240583600080C00002080
:101AF000040000200448054900684968044AC1F30D
:101B00000221515CC84070470C00002000100240C8
:101B1000683600080448054900684968044AC1F36A
:101B2000C221515CC84070470C00002000100240E8
:101B30006836000812A185B00FC98DE80F0014A007
:101B4000144A006804905168134801F00C03042BF8
:101B500010D0082B0ED1C1F38343C9031DF8030035
:101B60000AD5516804AAC1F34041515C0A4A504366
:101B7000B0FBF1F005B0704708494843FAE70000B0
:101B800002030405060708090A0B0C0D0E0F1010BE
:101B9000010200000010024000127A0000093D001E
:101BA0002DE9F84F040070D02078C04DC00749D00F
:101BB0006868C0F38100012807D06868C0F381001D
:101BC000022809D16868C00306D52868800339D582
:101BD00060680028E7D035E06068B0F5803F0BD042
:101BE00010B1B0F5A02F11D0286820F48030286003
:101BF000286820F4802002E0286840F480302860C3
:101C0000606890B1FFF7FEF906460AE0286840F4E4
:101C100080202860F0E700BFFFF7F4F9801B6428FC
:101C200073D828688003F7D50CE0FFF7EBF9064678
:101C300005E000BFFFF7E6F9801B6428F0D82868AC
:101C40008003F7D420789A4E80074FF001094FF0B7
:101C5000000839D5686810F00C0F07D06868C0F329
:101C60008100022809D16868C00306D4286880076B
:101C700014D52069012808D110E02069B0B1C6F858
:101C80000090FFF7BFF9074605E00AE1FFF7BAF950
:101C9000C01B0228C4D828688007F7D52868616966
:101CA00020F0F80040EAC10028600DE0C6F800808E
:101CB000FFF7A8F9074604E0FFF7A4F9C01B0228C4
:101CC00023D828688007F7D4207800072CD57948D6
:101CD000A169D9B1C0F80090FFF794F9074604E074
:101CE000FFF790F9C01B02280FD8686A8007F7D564
:101CF00071484FF4FA510068B0FBF1F0009000BF5A
:101D00000098411E0091FAD20EE080E0C0F80080F9
:101D1000FFF778F9074604E0FFF774F9C01B0228C3
:101D200075D8686A8007F7D42078400760D5E869DD
:101D30000027C00008D4E86940F08050E861E869F5
:101D4000012700F0805000905C480168C90513D459
:101D50000168834641F480710160FFF753F98246C0
:101D600006E000BFFFF74EF9A0EB0A0064284ED84A
:101D7000DBF80000C005F5D5E06801280AD008B1FD
:101D8000052813D0286A20F001002862286A20F074
:101D9000040002E0286A40F001002862E06841F295
:101DA000883B98B1FFF72EF982460BE0286A40F095
:101DB00004002862EEE700BFFFF724F9A0EB0A0158
:101DC00059455AD8286A8007F6D50CE0FFF71AF96A
:101DD000824605E0FFF716F9A0EB0A0159454CD8F9
:101DE000286A8007F6D41FB1E86920F08050E861C6
:101DF000E06988B36968C1F38101022944D00228EF
:101E0000C6F8608004D0FFF7FDF8044638E034E0FF
:101E1000FFF7F8F8074604E0FFF7F4F8C01B0228C4
:101E20002BD828688001F7D4206AB0F5803F05D10F
:101E30006868A16820F4003008436860D4E90801AC
:101E40000843696821F4741108436860C6F860901B
:101E5000FFF7D8F8044606E025E000BFFFF7D2F808
:101E6000001B022809D828688001F7D51BE000BFB5
:101E7000FFF7C8F8001B022802D90320BDE8F88F3D
:101E800028688001F4D40EE00128F7D06868226A3F
:101E900000F48031914204D1616A00F470108842EC
:101EA00001D00120EAE70020E8E70000001002402E
:101EB00000004242800442420C00002000700040BA
:101EC00010B5401EB0F1807F01D3012010BD4FF04E
:101ED000E02460610F21601701F03BFB0020A0614E
:101EE00007202061002010BD70477047F8B50268D8
:101EF00004461068D168536910F00F0F4FF00005C9
:101F000053D003F0010601F4907737435FD0C20746
:101F100005D0CA0503D5226C42F0010222644207B3
:101F200005D5DA0703D0226C42F002022264820750
:101F300005D5DA0703D0226C42F0040222640207BE
:101F400007D501F02002324303D0226C42F0080290
:101F50002264226C002A34D0800604D5880602D57B
:101F6000204601F005FA20684069216CC0F380101A
:101F7000090700D430B3204601F0E2F92068416936
:101F800049061BD5416921F040014161A06BA8B110
:101F900058494163A06BFEF7E3FE002811D0A06B07
:101FA000416B01B0BDE8F040084783060FD58B06B2
:101FB0000DD52046BDE8F84001F0DAB92046FFF71C
:101FC00094FFF8BD2046FFF790FF2564F8BD266B0F
:101FD0002023012E52D1C60650D5CE064ED510680C
:101FE00050680090506940062AD5A16B0868406887
:101FF0000004000CEAD0A68D8642E7D9E085886906
:10200000202818D0D06820F48070D0602068416902
:1020100021F0010141612068416921F040014161E5
:1020200084F83E3025632068C16821F01001C1604A
:10203000A06BFEF771FEA08DE18D401A81B219E010
:10204000A08DE18D401A81B2E08D0028BED000291C
:10205000BCD0D06820F49070D0602068426922F033
:102060000102426184F83E3025632068C26822F094
:102070001002C2602046FFF737FFF8BD05062BD5DA
:102080000D0629D594F83D002128F6D1A068B0F5B9
:10209000805F01D12069B0B1206A411C21622168B2
:1020A00000784860E08C401E0004000CE084E4D11D
:1020B0002068C16821F08001C1602068C16841F0DA
:1020C0004001C160F8BD206A0088C0F3080050607C
:1020D000206A801C2062E5E74006F3D54806F1D56A
:1020E000D168204621F04001D16084F83D3000F0F5
:1020F000D0F8F8BD3133000870B5040004D094F86E
:102100003D00002510B106E0012070BD84F83C5070
:10211000204600F023F8242084F83D002068C168A0
:1021200021F40051C160204601F07EF92068016968
:1021300021F4904101612068416921F02A01416147
:102140002068C16841F40051C1602564202084F8F2
:102150003D0084F83E00002070BD000030B585B021
:102160000024009401940294039400681849884262
:102170002CD11848816941F480418161816901F461
:1021800080410491816941F0040181618069124DAF
:1021900000F0040004904FF40070009002200190C1
:1021A0000320039069462846FEF73CFE2815CDE93A
:1021B0000004694628460294FEF734FE00221146C8
:1021C0002520FFF7CFFB2520FFF7BEFB05B030BD74
:1021D0000038014000100240000801407047000034
:1021E0002DE9F843044690F83D001F4616460D467B
:1021F00020284CD1C5B1BEB194F83C00012846D08E
:10220000012084F83C004FF00008C4F840802120F1
:1022100084F83D00FEF7F6FEA6848146E684A068B9
:10222000B0F5805F03D004E00120BDE8F8832069A9
:1022300028B12E465FF0000584F83C800EE00026B1
:10224000FAE78021204601F04BF9A0B9AEB116F8AB
:10225000010B21684860E08C401EE084E08C4B4616
:102260004FF0000200970028EBD14FF040012046CC
:1022700001F036F930B10320D7E735F8020BC0F38F
:102280000800E6E7202084F83D000020CDE702208A
:10229000CBE77047FEE700000148FEF7BBBE000039
:1022A0001C0000200148FEF717BF00001C000020A2
:1022B00038B5406A002190F83D202B4B46F2A81417
:1022C0001B68B3FBF4F3C3EBC30303EB830300937B
:1022D0003BB15B1E009303681B689B0505D5009B03
:1022E000F6E7036C43F020030364436B03B1996288
:1022F000836B03B1996203681C6824F480641C60DA
:102300004185436B03B15963836B03B15963036820
:102310001C6824F001041C6090F83D402023602CD0
:102320000BD0282434EA02020FD080F83D3080F828
:102330003E1000BFFEF7E8FF38BD80F83D3080F862
:102340003E100164FEF764FE38BD0268136843F076
:10235000010313600268136843F480631360016330
:1023600080F83D40E6E700000C00002070B5044610
:1023700090F83D0094F83E10102901D0402906D174
:10238000222804D121680A6822F400620A60282108
:1023900031EA00024FF000054FF0200626D02168F8
:1023A0004968090505D4602803D084F83D6084F8A5
:1023B0003E50256320684168090537D5416821F4FE
:1023C00000614160606B3D4990F82120012A11D0E5
:1023D0004163606BFEF7C4FC38B32068016821F0EC
:1023E0000101016084F83D60606B1CE0256384F8A6
:1023F0003D10DFE7A06B4163A06BFEF7B1FCA0B11D
:1024000020684169C943490605D40069616A0870BA
:10241000606A401C60622068016821F0010101606F
:1024200084F83D60A06B416B884710E094F83D1044
:10243000602910D04169C943490605D40069616A21
:102440000870606A401C60622046FEF75DFF206CE9
:10245000C1071CD115E084F83D6025644169C9437A
:10246000490605D40069616A0870606A401C6062B0
:102470002068016821F0010101602046FEF7C8FDD7
:10248000E5E7810703D4410701D4000704D520689C
:10249000416821F4E061416094F83D00216C4907F6
:1024A0000BD5282809D10648E062256384F83D60F1
:1024B00084F83E502046FEF7F1FF70BDB1220008BF
:1024C0000000FFFF01684A69D24352050FD46FF440
:1024D00080624A61002140F8301F202242738173DC
:1024E000026942F00402026101730120704700207A
:1024F000704710B5C26A438D0168042B06D0438D26
:10250000032B08D0438D022B1DD012E04A6822F421
:1025100080624A600CE04B6823F480634B60042ABD
:1025200006D0022A04D001680A6822F480620A6098
:1025300001680969426A1170416A491C4162418D12
:10254000491E418510BD012A30D0102A2ED0042A00
:1025500030D0022A2ED00A6842F400720A60016864
:102560000969426A1170416A491C4162428D521EDA
:102570004285026812690A70416A491C4162418DB4
:10258000491E418501684A6822F440724A60202150
:1025900080F83D1090F83E200021402A80F83E103F
:1025A0000CD012210163FEF77AFF10BD0A6822F4F5
:1025B0008062D3E70A6842F48062CFE70163FFF7E5
:1025C00029F910BD38B590F83D10222914D1418D5C
:1025D000032912D901680969426A1170416A491CCC
:1025E0004162418D491E4185418D032904D1006816
:1025F000416821F48061416038BDC26A022AFBD083
:10260000012901D00029F7D1274946F2A813002259
:102610000968B1FBF3F101EB81010091016820230E
:10262000009C641E009422D00C68A405F8D40C68A9
:1026300024F480640C6001684C6824F4E0644C600D
:1026400001680969446A2170416A491C4162418DEF
:10265000491E418580F83D3090F83E1080F83E20BC
:1026600040291DD012210163FEF719FF38BD046C0B
:1026700044F0200404644C6824F4E0644C60016875
:102680000969446A2170416A491C4162418D491EB1
:10269000418580F83D3080F83E20FEF735FE38BD9C
:1026A0000263FFF7B7F838BD0C0000202DE9F84FA2
:1026B0000446C06A1E4693460D4621680A6842F4E5
:1026C00080620A60082807D0012805D010F5803FF5
:1026D00002D0206B112804D12068016841F4807178
:1026E00001604FF001195B460022494620460096E2
:1026F00000F0E2FB4FF4007840B120680068C005AC
:1027000001D5C4F840800320BDE8F88F2069DFF8C8
:1027100084A0B0F5804F0FD00620216800EAD517BD
:1027200047F0F000086133465A460AF10601204698
:1027300000F0F6FB58BB03E0E8B240F001001CE0FB
:102740002168E8B2086133465A465146204600F0F7
:10275000E7FBE0B92068416981690091016841F4B3
:10276000807101605B46002249462046009600F0D9
:10277000A3FB0028C1D147F0F1002168086133466E
:102780005A465146204600F0CBFB0028BCD0012021
:10279000BAE7000002000100F8B50446C06A1E4610
:1027A0000D461746082807D0012805D010F5803FB0
:1027B00002D0206B122804D12068016841F4807196
:1027C0000160134600224FF001112046009600F0F0
:1027D00073FB40B120680068C00502D54FF400705B
:1027E00020640320F8BD2069B0F5804F0ED006208C
:1027F000216800EAD51040F0F000086133463A46FF
:102800000B49204600F08CFB78B902E005F0FE0091
:1028100000E0E8B221680861054933463A46891F5D
:10282000204600F07DFB0028DCD00120F8BD000030
:102830000800010010B5C26A90F83D1021290BD1A3
:10284000418D51B1416A026809781161416A491CA0
:102850004162418D491E418510BD20230021082A77
:1028600013D0202A11D012F5803F0ED00268546890
:1028700024F4E06454601122026380F83E1080F872
:102880003D3000BFFEF70CFE10BD0268546824F412
:10289000E06454600268146844F4007414600163D6
:1028A00080F83D3090F83E2080F83E10402AE9D173
:1028B000FEF7B1FF10BD000010B590F83D1090F884
:1028C0003E30C26A048DB4B1212903D0402B11D10E
:1028D00022290FD1418DE1B390F83E10402942D01A
:1028E000416A026809781161416A491C4162418D5F
:1028F000491E418510BD2129E8D120230021082A45
:1029000013D0202A11D012F5803F0ED002685468EF
:1029100024F4E06454601122026380F83E1080F8D1
:102920003D3000BFFEF7BCFD10BD0268546824F4C2
:10293000E06454600268146844F400741460016335
:1029400080F83D3090F83E2080F83E10402AE9D1D2
:1029500000E002E0FEF75FFF10BD0068416821F46F
:102960008061416010BDBDE8104000F0F3B8000088
:1029700078B590F83E50C26A046B90F83D60002331
:102980000168222E73D1066D0EB9402D6FD0056DF2
:102990001DB90569B5F5404F1BD0458D95B3468DE2
:1029A000484D012E20D0448D022C4DD00C6844F4AB
:1029B00080640C6001684C68240579D5AA4273D004
:1029C000012A71D0082A6FD0102A6DD0202A6BD02E
:1029D0006EE04A698A6900920A6842F480720A606D
:1029E000016D491C016578BDAA4214D10A6822F420
:1029F00080620A6001684A68120504D50A6822F4F8
:102A0000806217E0FFE74A698A6900920A6842F427
:102A100000720A6050E0082A10D0202A0ED0122C32
:102A20000AD0042A03D0022A01D0102AE6D10A686B
:102A300042F480620A603BE0012ADFD00A6822F497
:102A400080620A600168DEE7042A11D0022A0FD0F2
:102A5000102A0DD00C6844F400640C6001684C69C5
:102A60008C6900940C6824F480640C6008E025E014
:102A70000C6844F480640C6001684C6989690091B9
:102A800001684C68240517D5AA4207D0012A05D051
:102A9000082A03D0102A01D0202A0DD14A6842F416
:102AA00080524A6008E0FFE74A6842F480524A6078
:102AB00001684A6989690091036578BD4869886938
:102AC000009078BD0000FFFF90F83E10402910D024
:102AD0000169B1F5804F19D0016DA9B3016D0129CC
:102AE00010D1416C5FF0F10201F4407142EAD11162
:102AF00006E0016D0029416C05D0C9B241F0010129
:102B000000680161704701F0FE01F9E790F83D109F
:102B10002129416C09D0C9B241F00101026811615B
:102B2000416B29B1896A49B902E001F0FE01F5E77C
:102B3000816B0029E6D0896A0029E3D000684168EA
:102B400041F4006141607047FFE7416CF02201F4FD
:102B50004071CBE710B590F83D10026D22B3026DC5
:102B6000012A2FD0026D022A1DD122292FD0428D99
:102B70000AB1212933D0428D002A14D1212912D142
:102B800001684A6822F4E0624A6001680A6842F417
:102B900000720A6000210163202280F83D2080F845
:102BA0003E10FEF738FE10BDC16C0129816C02D0C9
:102BB000C1F3072108E00268C9B21161016D891CE7
:102BC000016510BD816CC9B20268116104E0016841
:102BD0000A6842F480720A60016D491CF0E7416A9C
:102BE000026809781161416A491C4162418D491EA0
:102BF000418510BD0FB4F8B54FF47A74DDE91B655B
:102C00000A4F07E006A8FEF780FB042802D008A0C0
:102C1000FDF7E6FA2B46FA1D314606A80094FEF7AA
:102C200041FC0028EED1F8BC5DF814FBB400002094
:102C30005265616420627566666572206572726FA6
:102C4000720D0A0038B50C4690F83D200021282569
:102C5000954302680B4605D051699169009180F84F
:102C60003C3038BD556825F480655560E243540713
:102C700000D50121120601D5828900E0028B80F87F
:102C80003C3092B2FEF7C5F938BD00002DE9F041A5
:102C900090F83D40C26A002320261C4F01686FF463
:102CA0008065082A01D0202A01D1282C04D0212CAB
:102CB00016D04D61BDE8F081C7624A6822F4E06237
:102CC0004A6001684D6101680A6822F480620A6006
:102CD000036380F83D6080F83E30FEF7DFFBE9E7F4
:102CE000C7622122026380F83D6080F83E304A6866
:102CF00022F4E0624A6001684D6101680A6822F4CA
:102D000080620A60FEF7C7FDD4E700000000FFFF05
:102D1000F8B590F83D6004460068416821F4E06130
:102D200041602068002541690091016841F001017E
:102D300001602068016821F48061016020684168B9
:102D4000090520D5474F222E48D02A2E46D0616B48
:102D5000096849686185618D19B1216C41F00401F0
:102D60002164416821F400614160606BFEF744F822
:102D7000012808D0606B4763606BFDF7F1FF10B16D
:102D8000606B416B8847608D08B320684169C94317
:102D9000490708D40069616A0870606A401C606273
:102DA000608D401E608520684169C943490608D48A
:102DB0000069616A0870606A401C6062608D401E34
:102DC0006085608D18B1206C40F004002064206C98
:102DD00000B32046BDE8F840FFF7C8BAA16B096808
:102DE00049686185618D19B1216C41F0040121644C
:102DF000416821F400614160A06BFDF7FDFF0128EF
:102E0000C1D0A06B4763A06BFDF7AAFF0028BAD022
:102E1000A06BB6E72A2E06D12563282084F83D0052
:102E20002046FEF737FD94F83D10202028290DD0CC
:102E3000216B222901D0222E07D1256384F83D0081
:102E400084F83E502046FEF725FDF8BD0649E162B4
:102E5000256384F83D0084F83E502046FEF71EFBB3
:102E6000F8BD0000B12200080000FFFF70B5164653
:102E70000D4604460DE02046FFF724FB08B1012073
:102E800070BD681C05D0FEF7BDF8801BA84207D8AE
:102E900035B120684069C0434007ECD4002070BDC4
:102EA000002044F8300F20216173A073216941F0A4
:102EB000200121612073E2E72DE9F0471E4690468C
:102EC0000D460446C1F30747DDF8209008E0701C6A
:102ED00006D0FEF797F8A0EB0900B0420FD876B104
:102EE0002068012F18D0806925EA00000004000C3A
:102EF00014D000214145EAD00020BDE8F087002031
:102F000044F8300F20216173A073216941F0200142
:102F1000216120730120F0E74069E5E70121E9E73D
:102F20002DE9F0479A4691460E46044600254FF09B
:102F30002008C1F3074725E020684069C0434005E9
:102F400014D42068016841F40071016021686FF4B5
:102F500080604861256384F83D8084F83E50206C91
:102F600040F00400206484F83C501FE0B9F1FF3FBA
:102F700008D0FEF747F8A0EB0A0149450CD8B9F193
:102F8000000F09D02068012F13D0806926EA0000C5
:102F90000004000C0BD0CFE744F8305F84F80D80BC
:102FA000A573206940F02000206125730120BDE851
:102FB000F0874069EAE72DE9F041002590460E468A
:102FC0000446202717E04069C043C0060CD454F8DB
:102FD000301B6FF01000486144F810596777A577EF
:102FE000206A2062257717E0FEF70CF8A0EB0800B6
:102FF000B04208D83EB120684169C9434906E2D4CD
:103000000020BDE8F08144F8305F6773A573206944
:1030100040F02000206125730120F2E770B51646CC
:103020000D4604460DE02046FFF74CFA08B101209A
:1030300070BD681C05D0FDF7E5FF801BA84207D8CE
:1030400035B120684069C0430006ECD4002070BD53
:10305000002044F8300F20216173A073216941F0F2
:10306000200121612073E2E70FB4F8B54FF47A74C0
:10307000DDE91B650A4F07E006A8FEF746F90428BC
:1030800002D008A0FDF7ACF82B46FA1D314606A881
:103090000094FEF729FB0028EED1F8BC5DF814FB84
:1030A000B4000020577269746520427566666572C7
:1030B000206572726F720D0A00000000FEE7FEE7E5
:1030C000704700F00F01000900EB800001EB4000A9
:1030D000C0B270470A21B0FBF1F201FB1202B0FB53
:1030E000F1F042EA0010C0B270470000F0B5484D60
:1030F000A9B00020E8712A22A5F1980113A8FDF7D4
:10310000EBF8A5F19804608DADF87600E06A1E90AA
:10311000206B1F9004F1340109220F4620A8FDF70F
:10312000DBF894F83D008DF8890094F83E008DF8A6
:103130008A00206C2390606C2490A06C2590E06C39
:103140002690206D27900120D026CDE911604422E1
:1031500017A96846FDF7C0F80DF14C0C9CE80F006C
:10316000FFF748FD2A489838FEF7D1F82028F9D112
:1031700027492A22983913A8FDF7AEF8608DADF8DB
:103180007600E06A1E90206B1F900922394620A825
:10319000FDF7A2F894F83D008DF8890094F83E0000
:1031A0008DF88A00206C2390606C2490A06C259090
:1031B000E06C2690206D27900720CDE91160442215
:1031C00017A96846FDF788F80DF14C0C9CE80F0034
:1031D000FFF710FDA87AFFF774FFE870E87AFFF7B1
:1031E00070FF2871287BFFF76CFF6871687BFFF721
:1031F00068FFA871E879FFF764FF2870287AFFF765
:1032000060FF6870687AFFF75CFFA87029B0F0BDB6
:10321000B40000202DE9F041A8B09846DDE92E4524
:103220002C4B06460020D8710F46D0B2FFF752FF54
:1032300018723846FFF74EFF58723046FFF74AFFC4
:1032400098724046FFF746FFD8722046FFF742FFCC
:1032500018732846FFF73EFF1E4958732A229839F3
:1032600013A8FDF739F81B4C983C608DADF876003B
:10327000E06A1E90206B1F90092204F1340120A8FF
:10328000FDF72AF894F83D008DF8890094F83E0087
:103290008DF88A00206C2390606C2490A06C25909F
:1032A000E06C2690206D27900821D020CDE91101F7
:1032B000442217A96846FDF70FF80DF14C0C9CE865
:1032C0000F00FFF7D1FE28B06420BDE8F041FDF704
:1032D00097BD0000B40000207047FEF7DDBA10B5BE
:1032E00090B028216846FDF729F814210AA8FDF7B7
:1032F00025F8022000900120049010200024059061
:1033000007946846FEF74CFC08B172B6FEE70F2042
:10331000CDE90A040C940D9400210AA80E94FEF73E
:1033200053FB002801D072B6FEE710B010BD704705
:1033300010B5406A0021C185C184FEF7D6FD10BDDD
:103340000168CA6822F49072CA6001684A6922F072
:1033500001024A61016B012904D10168CA6822F0A7
:103360001002CA60202180F83E10002101637047DE
:1033700008B590F83E10222901D0022008BD8268CD
:103380004FF480539A4201D1016921B1816A9A4276
:103390001BD04AB10AE00268816A5268C2F308028F
:1033A0000A80816A891C08E0026972B10268526869
:1033B00002F07F020A70816A491C8162C18D491E38
:1033C0000904090CC18503D019E002685268F1E7CD
:1033D0000168CA6822F02002CA600168CA6822F443
:1033E0008072CA6001684A6922F001024A612021A4
:1033F00080F83E10016B012903D0FEF7EFFE00209C
:1034000008BD002101630168CA6822F01002CA6089
:1034100001680A68D20602D50A6849680091818D60
:10342000FEF762FDEBE7000070B504460068016935
:10343000E26821F44051114301612169A068084309
:10344000616908432168CA6841F20C639A430243E8
:10345000CA6020684169A26921F440711143416149
:103460001E492068884202D1FEF754FB01E0FEF7B6
:1034700041FB00EBC00101EB001260686421800099
:10348000B2FBF0F3B3FBF1F36FF018067343B2FB3A
:10349000F0F5B2FBF0F605EB8305322303EB0515DF
:1034A000B5FBF1F5B6FBF1F605F0F00505EB0615F9
:1034B000B2FBF0F6B2FBF0F0B0FBF1F06FF01802E7
:1034C000504306EB800003EB0010B0FBF1F02168E5
:1034D00000F00F002844886070BD000000380140F3
:1034E0002DE9F041984617460E460446069D1DE01C
:1034F000681C1BD02DB1FDF785FDA0EB0800A8428C
:1035000014D92068C16821F4D071C1602068416974
:1035100021F001014161202084F83D0084F83E0043
:10352000002084F83C000320BDE8F081206800689A
:1035300036EA000004D00020B842D9D00020F3E7DA
:103540000120F9E70148FEF7D1BC0000700000201F
:10355000FEE70907090E002804DB00F1E02080F8EF
:103560000014704700F00F0000F1E02080F8141DF7
:103570007047000013B56423012269460248FEF734
:103580002FFE00981CBD0000700000201CB5FEF747
:103590008BF9FFF7A4FE2848816941F0040181619D
:1035A000816901F004010091816941F008018161A4
:1035B0008069224900F00800009021480024016041
:1035C0002049C0E901144FF48041C0E9034144613E
:1035D0008461C4610462FDF79DFE08B172B6FEE726
:1035E0001748194954300C2501604FF41651C0E9B1
:1035F0000114C460C0E904458461C461FEF77CFD28
:1036000008B172B6FEE71620CDE9005002230E2263
:1036100031210F20FFF7FEFD094C4FF47A759834E5
:10362000FFF764FD23786278A17808A0FCF7D8FD45
:103630002846FDF7E5FBF3E7001002400054004088
:103640001C000020A08601000038014025643A25B6
:10365000643A25640D0A000000000000000000002C
:103660000102030406070809000000000102030428
:103670003A7474003A7474003A7474009C3600080A
:10368000000000201C00000028010008B8360008D7
:103690001C00002004080000440100080100000094
:1036A00010000000000000000024F40000000000F2
:0836B000000000000000000012
:04000005080000ED02
:00000001FF
