:020000040800F2
:10000000E006002089010008771D00085913000848
:10001000751D0008A1020008D31D000800000000A3
:100020000000000000000000000000007B1D000830
:10003000B902000800000000791D00087D1D0008BD
:10004000A3010008A3010008A3010008A301000800
:10005000A3010008A3010008A3010008A3010008F0
:10006000A3010008A3010008A3010008A3010008E0
:10007000A3010008A3010008A3010008A3010008D0
:10008000A3010008A3010008A3010008A3010008C0
:10009000A3010008A3010008A3010008A3010008B0
:1000A000A3010008A3010008A3010008A3010008A0
:1000B000A3010008A3010008A30100085D130008C4
:1000C000A3010008A3010008A3010008A301000880
:1000D000A3010008A3010008A3010008A301000870
:1000E000A3010008A3010008A301000800F002F822
:1000F00000F03AF80AA090E8000C82448344AAF188
:100100000107DA4501D100F02FF8AFF2090EBAE885
:100110000F0013F0010F18BFFB1A43F0010318473B
:10012000D81D0000F81D0000103A24BF78C878C11F
:10013000FAD8520724BF30C830C144BF04680C60ED
:10014000704700000023002400250026103A28BF35
:1001500078C1FBD8520728BF30C148BF0B60704739
:100160001FB51FBD10B510BD00F058F81146FFF7C0
:10017000F7FF01F03FFE00F076F803B4FFF7F2FF5F
:1001800003BC00F07DF8000009488047094800479B
:10019000FEE7FEE7FEE7FEE7FEE7FEE7FEE7FEE737
:1001A000FEE7FEE704480549054A064B7047000094
:1001B000D11D0008ED000008E0000020E00600204E
:1001C000E0020020E00200204FF0000200B51346DC
:1001D00094469646203922BFA0E80C50A0E80C5067
:1001E000B1F12001BFF4F7AF090728BFA0E80C5018
:1001F00048BF0CC05DF804EB890028BF40F8042B11
:1002000008BF704748BF20F8022B11F0804F18BF7D
:1002100000F8012B7047704770477047754600F033
:100220002BF8AE4605006946534620F00700854688
:1002300018B020B5FFF7B6FFBDE820404FF000062C
:100240004FF000074FF000084FF0000B21F00701BE
:10025000AC46ACE8C009ACE8C009ACE8C009ACE801
:10026000C0098D46704710B50446AFF300802046A4
:10027000BDE81040FFF781BF004870477C000020B8
:1002800001491820ABBEFEE726000200704700F0CF
:100290000F01000900EB800001EB4000C0B2704785
:1002A000FEE70A21B0FBF1F201FB1202B0FBF1F014
:1002B00042EA0010C0B270477047000010B590F8D5
:1002C00021100024022903D00421816301243DE090
:1002D00001680A6822F00E020A6001680A6822F0CA
:1002E00001020A601A4A0168914201D1012121E00C
:1002F000174A1432914201D110211BE0144A2832CE
:10030000914201D1891515E0114A3C32914201D147
:1003100089140FE00E4A5032914202D14FF48031DD
:1003200008E00B4A6432914202D14FF4801101E09F
:100330004FF08071064A083A5160012180F821107F
:10034000002180F82010416B01B18847204610BD84
:100350000800024090F821007047000070B5044684
:1003600000F004F90546601C02D0044800780444FB
:1003700000F0FCF8401BA042FAD370BD180000202A
:100380002DE9F84FDFF8B891002409F1040A0AF1C9
:10039000040B23460F270BF1040EC9E00125A540ED
:1003A0002A40AA427DD1674ED1F804C0ACEB0608C2
:1003B000B44532D014DCBCF1030F3AD009DCBCF1F7
:1003C000000F2AD0BCF1010F1CD0BCF1020F31D1BB
:1003D0001DE0BCF1110F17D0BCF1120F2AD119E0AA
:1003E000B8F5881F19D006DCB8F5803F15D0B8F5F0
:1003F000801F1FD111E0B8F5001F0ED0B8F5041F03
:1004000018D10AE0CB6815E0CB681B1D12E0CB6861
:1004100008330FE0CB680C330CE08B682BB1012B59
:100420004FF0080303D0456104E0042302E00561B6
:1004300000E00023FF2A01D8064601E000F104068F
:100440004FEA840501D9A5F12005D6F8008007FA06
:1004500005FC28EA0C0803FA05F548EA0508C6F881
:1004600000804D68ED0062D5374DAE6946F001065B
:10047000AE61AD6924F0030605F001050095334D2A
:1004800006EB050CDCF80850A607360F07FA06F84D
:1004900025EA0805DFF8B880404503D14FF0000891
:1004A00017E044E0DFF8AC80404502D14FF001088E
:1004B0000FE0DFF8A480404502D14FF0020808E0C9
:1004C000DFF89880404502D14FF0030801E04FF07B
:1004D000040808FA06F848EA0508CCF808804D68D0
:1004E000D9F80060ED034D4601D5164300E0964370
:1004F0002E604D68DAF80060AD03554601D516430D
:1005000000E096432E604D68DBF80060ED025D462A
:1005100001D5164300E096432E604D68DEF800607A
:10052000AD02754601D5164300E096432E60641C6B
:100530000D682A46E5407FF431AFBDE8F88F000032
:1005400000040140000011100010024000000140B2
:1005500000080140000C014000100140001401405F
:100560000AB1016170470904FBE700000148806897
:100570007047000018000020704770472DE9F047D1
:10058000026800215368C66A90F83E4090F83D50DA
:10059000102C12D0402C10D0046C002C7DD054694B
:1005A000E443A6077AD4DE43B60577D4036C03B1DF
:1005B0009169BDE8F04701F09FBA976951694FF41E
:1005C0002A0CC9435FEAC1784FF02A4904D0664536
:1005D0002AD04E4528D010E0DE43B6050DD4C16ABE
:1005E000614501D1012103E0C16A494501D10821DA
:1005F000C162BDE8F04701F0E9B90E0716D4DE4349
:10060000B60513D4416CC9B21161416B09B1896A55
:1006100029B9816B002907D0896A002904D00068B4
:10062000416841F400614160BDE8F0878E0706D45F
:10063000DE43B60503D4BDE8F04701F01BB9FE4325
:10064000526876074FEA02521DD4002AECDB0A06F4
:1006500008D4DA43520505D4490705D5BDE8F0476B
:1006600001F0ACB84907DFD4D9438905DCD4212D8A
:1006700005D0402CD8D1BDE8F04701F0EDB9BDE878
:10068000F04701F059B8002ACEDB4A060BD4DA4312
:10069000520508D4490708D501E00DE00EE0BDE899
:1006A000F04700F0D5BF4907BED4D9438905BBD474
:1006B000BDE8F04700F062BF916970E7E10606D43B
:1006C000D943890503D4BDE8F04701F039BA2821A0
:1006D000212D27D0292D25D0650655D4DD436D0564
:1006E00052D4640752D590F83D30448D002C9BD0F5
:1006F0001269446A2270426A521C4262428D521E42
:100700004285428D002A8FD12A2B8DD102685368F1
:1007100023F4806353602222026380F83D1000F0CE
:1007200001FB81E7250623D4DD436D0520D4640752
:1007300020D590F83D30448D002CF2D0446A2478C6
:100740001461426A521C4262428D521E4285428DA1
:10075000002AE6D1292BE4D10268536823F4806390
:1007600053602122026380F83D1000F0DCFA5BE761
:100770006107D6D4D9438905D3D4418D0029D0D07F
:10078000416A097811610AE06107CAD4D943890531
:10079000C7D4418D0029C4D01169426A1170416AE1
:1007A000491C4162418D491E41853DE7704700006B
:1007B00070B5040025D094F83D00002520B984F8D8
:1007C0003C50204600F078FA242084F83D00206850
:1007D000016821F0010101602068016841F40041D5
:1007E00001602068016821F40041016000F0CAFB4B
:1007F0004D4A6168914201D84C4900E04C49884219
:1008000001D2012070BD4B492368B0FBF1F15E6855
:1008100026F03F060E435E606368934206D94FF4AC
:10082000967359434FF47A73B1FBF3F12368491C73
:100830001E6A26F03F06314319626168914210D862
:100840004900401EB0FBF1F2521CC2F30B02042A15
:1008500001D2042022E0B0FBF1F0401CC0F30B00F9
:100860001CE0A268F2B301EBC10303EB0116431EC7
:10087000B3FBF6F35B1C43F480431B0549D092B3F2
:1008800001EBC10202EB0111401EB0FBF1F0401C74
:10089000C0F30B0040F4804040F400402168CA6976
:1008A0004CF6FF739A431043C861D4E90710014323
:1008B0002068026822F0C00211430160D4E90301FC
:1008C00001432068826848F2FF339A4311438160F4
:1008D000D4E9050108432168CA6822F0FF021043E9
:1008E000C86001E00EE016E02068016841F00101F7
:1008F00001602564202084F83D00256384F83E5083
:10090000002070BD01EB4106431EB3FBF6F35B1CF8
:10091000B3E70120C2E701EB4101401EB0FBF1F05B
:10092000401CC0F30B00B7E7A086010080841E00C6
:1009300000093D0040420F002DE9FF4F81B089467C
:100940000446FFF713FE054694F83D004FF00108FA
:1009500020287DD11923012250492046009501F01D
:100960009DF9002874D194F83C00012870D0012032
:1009700084F83C0020680168C90703D1016841F090
:10098000010101602068016821F4006101602420F8
:1009900084F83D00002626644148E0624FF0011BC8
:1009A00020272068016841F48071016000950022D1
:1009B00059462046049B01F071F950B12068006847
:1009C000C00502D54FF400702064032005B0BDE8D7
:1009D000F08F216809F0FE000861FFF7C7FD21686C
:1009E000054648694969C0F34000C1F380214FF0D2
:1009F000A00A0FE0FFF7BAFD411B0498814200D81E
:100A000008B984F83DA0216848694969C0F34000ED
:100A1000C1F3802194F83D20A02A02D008B9002912
:100A2000E8D084F83D7020684169C943890716D42D
:100A3000016841F4007101602068416980691923EF
:100A4000012216492046009501F028F9B8B900E0C6
:100A500021E084F83D7084F83C600020B6E701682E
:100A600041F40071016021686FF4806048611923CE
:100A700001220A492046009501F010F908B1012031
:100A8000A4E7039808F1010880458AD384F83D70F3
:100A900084F83C60F3E7022098E7000002001000B1
:100AA0000000FFFF704770477047000000B5006806
:100AB000114988421ED1114A1078FFF7E8FB0F4B0D
:100AC0000E3398705078FFF7E2FB58709078FFF77C
:100AD000DEFB1870D078FFF7DAFB18711079FFF79A
:100AE000D6FBD8705079FFF7D2FB58719079FFF799
:100AF000CEFB987100BD00000054004001000020B2
:100B000070470000F8B50024DDE90676009490F8FF
:100B10003D50202D60D1314D46F2A81C2D68B5FB0B
:100B2000FCF505EBC50C0CEB051500956D1E00954D
:100B300006D00568AD69ED43AD070DD4009DF5E71E
:100B400040F8304F202141738473016941F0200146
:100B5000016104730120F8BD90F83C50012D3BD099
:100B6000012580F83C500568D5F800C05FEACC7CD0
:100B700005D1D5F800C04CF0010CC5F800C00568DF
:100B8000D5F800C02CF4006CC5F800C0222580F810
:100B90003D50402580F83E50046447624685458DAF
:100BA00005850F4DC56241648264C36404650168B4
:100BB0000A6842F480620A6001680A6842F480723E
:100BC0000A6080F83C40018D21B10068416841F421
:100BD000E06141600020F8BD0220F8BD2400002043
:100BE0000000FFFFF8B50024DDE90676009490F8D8
:100BF0003D50202D59D12E4D46F2A81C2D68B5FB35
:100C0000FCF505EBC50C0CEB051500956D1E00956C
:100C100006D00568AD69ED43AD070DD4009DF5E73D
:100C200040F8304F202141738473016941F0200165
:100C3000016104730120F8BD90F83C50012D34D0BF
:100C4000012580F83C500568D5F800C05FEACC7CEF
:100C500005D1D5F800C04CF0010CC5F800C00568FE
:100C6000D5F800C02CF4006CC5F800C0212580F830
:100C70003D50402580F83E50046447624685458DCE
:100C800005850C4DC56241648264C36404650168D6
:100C90000A6842F480720A6080F83C40006841684B
:100CA00041F4E06141600020F8BD0220F8BD000081
:100CB000240000200000FFFF10B586B00021009145
:100CC00001910291039100681349884222D1134C8B
:100CD000A06940F00800A061A069694600F0080022
:100CE0000490C020009012200190032003900C4833
:100CF000FFF746FBE06940F40010E061E069002284
:100D000000F40010049011461F2000F073F81F201B
:100D100000F062F806B010BD005400400010024020
:100D2000000C014070477047024881680278114406
:100D30008160704718000020074810B5016841F035
:100D400010010160032000F075F80F2000F006F894
:100D500000F024F8002010BD0020024070B50D4DB9
:100D600004464FF47A712878B1FBF0F00A4909681B
:100D7000B1FBF0F000F0DCFA48B9102C07D20022E9
:100D80002146501E00F036F800206C6070BD012036
:100D900070BD000018000020240000200C4808B599
:100DA000816941F001018161816901F001010091D6
:100DB000C16941F08051C161C06900F0805000906C
:100DC0000448416821F0E06141F00071416008BDD4
:100DD0000010024000000140002809DB00F01F0263
:100DE000012191404009800000F1E020C0F800118D
:100DF00070470000F0B40E4B1B680C46C3F302238F
:100E0000C3F10705042D00D90425191D072901D2B6
:100E1000002300E0DB1E012606FA05F1491E2140F1
:100E200099409E40761E16403143F0BC00F0D2BF80
:100E30000CED00E0064900F0070208684FF6FF03DA
:100E4000184040EA0220034A10430860704700003F
:100E50000CED00E00000FA052DE9F0470F46050013
:100E600061D0434E306800F00700B84209D23068C4
:100E700020F0070038433060306800F00700B842C7
:100E800051D128683B4C810712D5400703D56068D3
:100E900040F4E06060602878000703D5606840F4A3
:100EA000605060606068A96820F0F00008436060EE
:100EB0002878C00728D06868012810D02168022847
:100EC00010D0890700292EDA616821F0030101435F
:100ED0006160FFF74BFB804641F288390DE02168E5
:100EE0008903EFE78901EDE7FFF740FBA0EB08017D
:100EF000494502D90320BDE8F0876068696800F0C1
:100F00000C00B0EB810FEFD1306800F00700B84261
:100F10000BD9306820F0070038433060306800F0AB
:100F20000700B84201D00120E5E72878400705D541
:100F30006068E96820F4E060084360602878000792
:100F400006D56068296920F4605040EAC1006060FD
:100F500000F028F86168084AC1F30311515CC840E9
:100F60000649086006480068FFF7F8FE0020C2E75F
:100F70000020024000100240E01E00082400002073
:100F80001C0000200448054900684968044AC1F370
:100F90000221515CC840704724000020001002402C
:100FA000F01E000812A185B00FC98DE80F0014A033
:100FB000144A006804905168134801F00C03042B94
:100FC00010D0082B0ED1C1F38343C9031DF80300D1
:100FD0000AD5516804AAC1F34041515C0A4A504302
:100FE000B0FBF1F005B0704708494843FAE700004C
:100FF00002030405060708090A0B0C0D0E0F10105A
:10100000010200000010024000127A0000093D00B9
:101010002DE9F84F040070D02078C04DC00749D0AA
:101020006868C0F38100012807D06868C0F38100B8
:10103000022809D16868C00306D52868800339D51D
:1010400060680028E7D035E06068B0F5803F0BD0DD
:1010500010B1B0F5A02F11D0286820F4803028609E
:10106000286820F4802002E0286840F4803028605E
:10107000606890B1FFF77AFA06460AE0286840F403
:1010800080202860F0E700BFFFF770FA801B64281B
:1010900073D828688003F7D50CE0FFF767FA064697
:1010A00005E000BFFFF762FA801B6428F0D82868CB
:1010B0008003F7D420789A4E80074FF001094FF053
:1010C000000839D5686810F00C0F07D06868C0F3C5
:1010D0008100022809D16868C00306D42868800707
:1010E00014D52069012808D110E02069B0B1C6F8F4
:1010F0000090FFF73BFA074605E00AE1FFF736FAF2
:10110000C01B0228C4D828688007F7D52868616901
:1011100020F0F80040EAC10028600DE0C6F8008029
:10112000FFF724FA074604E0FFF720FAC01B022865
:1011300023D828688007F7D4207800072CD5794871
:10114000A169D9B1C0F80090FFF710FA074604E092
:10115000FFF70CFAC01B02280FD8686A8007F7D582
:1011600071484FF4FA510068B0FBF1F0009000BFF5
:101170000098411E0091FAD20EE080E0C0F8008095
:10118000FFF7F4F9074604E0FFF7F0F9C01B022867
:1011900075D8686A8007F7D42078400760D5E86979
:1011A0000027C00008D4E86940F08050E861E86991
:1011B000012700F0805000905C480168C90513D4F5
:1011C0000168834641F480710160FFF7CFF98246E0
:1011D00006E000BFFFF7CAF9A0EB0A0064284ED86A
:1011E000DBF80000C005F5D5E06801280AD008B199
:1011F000052813D0286A20F001002862286A20F010
:10120000040002E0286A40F001002862E06841F230
:10121000883B98B1FFF7AAF982460BE0286A40F0B4
:1012200004002862EEE700BFFFF7A0F9A0EB0A0177
:1012300059455AD8286A8007F6D50CE0FFF796F989
:10124000824605E0FFF792F9A0EB0A0159454CD818
:10125000286A8007F6D41FB1E86920F08050E86161
:10126000E06988B36968C1F38101022944D002288A
:10127000C6F8608004D0FFF779F9044638E034E01E
:10128000FFF774F9074604E0FFF770F9C01B022866
:101290002BD828688001F7D4206AB0F5803F05D1AB
:1012A0006868A16820F4003008436860D4E9080148
:1012B0000843696821F4741108436860C6F86090B7
:1012C000FFF754F9044606E025E000BFFFF74EF9AA
:1012D000001B022809D828688001F7D51BE000BF51
:1012E000FFF744F9001B022802D90320BDE8F88F5C
:1012F00028688001F4D40EE00128F7D06868226ADB
:1013000000F48031914204D1616A00F47010884287
:1013100001D00120EAE70020E8E7000000100240C9
:10132000000042428004424224000020007000403D
:1013300010B5401EB0F1807F01D3012010BD4FF0E9
:10134000E02460610F21601700F044FD0020A061DF
:1013500007202061002010BDFEE700000148FFF7D4
:101360000DB900002800002038B5406A002190F82F
:101370003D202B4B46F2A8141B68B3FBF4F3C3EBE0
:10138000C30303EB830300933BB15B1E009303682D
:101390001B689B0505D5009BF6E7036C43F0200313
:1013A0000364436B03B19962836B03B19962036871
:1013B0001C6824F480641C604185436B03B159634D
:1013C000836B03B1596303681C6824F001041C603B
:1013D00090F83D402023602C0BD0282434EA0202F0
:1013E0000FD080F83D3080F83E1000BFFFF7DEF9E7
:1013F00038BD80F83D3080F83E100164FFF7BCF83E
:1014000038BD0268136843F0010313600268136873
:1014100043F480631360016380F83D40E6E7000019
:101420002400002070B5044690F83D0094F83E106A
:10143000102901D0402906D1222804D121680A6848
:1014400022F400620A60282131EA00024FF0000510
:101450004FF0200626D021684968090505D4602888
:1014600003D084F83D6084F83E50256320684168CD
:10147000090537D5416821F400614160606B3D4941
:1014800090F82120012A11D04163606BFEF716FF0E
:1014900038B32068016821F00101016084F83D60E3
:1014A000606B1CE0256384F83D10DFE7A06B4163AF
:1014B000A06BFEF703FFA0B120684169C94349064C
:1014C00005D40069616A0870606A401C6062206827
:1014D000016821F00101016084F83D60A06B416B5F
:1014E000884710E094F83D10602910D04169C94345
:1014F000490605D40069616A0870606A401C606230
:101500002046FFF753F9206CC1071CD115E084F881
:101510003D6025644169C943490605D40069616A93
:101520000870606A401C60622068016821F0010157
:1015300001602046FFF720F8E5E7810703D4410763
:1015400001D4000704D52068416821F4E0614160BE
:1015500094F83D00216C49070BD5282809D106488D
:10156000E062256384F83D6084F83E502046FFF732
:1015700099FA70BD691300080000FFFF10B5C26A38
:10158000438D0168042B06D0438D032B08D0438D77
:10159000022B1DD012E04A6822F480624A600CE0FF
:1015A0004B6823F480634B60042A06D0022A04D0DF
:1015B00001680A6822F480620A6001680969426A67
:1015C0001170416A491C4162418D491E418510BD1F
:1015D000012A30D0102A2ED0042A30D0022A2ED050
:1015E0000A6842F400720A6001680969426A11706F
:1015F000416A491C4162428D521E4285026812694D
:101600000A70416A491C4162418D491E4185016849
:101610004A6822F440724A60202180F83D1090F818
:101620003E200021402A80F83E100CD01221016398
:10163000FFF739FA10BD0A6822F48062D3E70A681E
:1016400042F48062CFE70163FFF730FA10BD00007B
:1016500038B590F83D10222914D1418D032912D9B3
:1016600001680969426A1170416A491C4162418DF1
:10167000491E4185418D032904D10068416821F448
:101680008061416038BDC26A022AFBD0012901D0C5
:101690000029F7D1274946F2A81300220968B1FBB7
:1016A000F3F101EB8101009101682023009C641E8D
:1016B000009422D00C68A405F8D40C6824F480644B
:1016C0000C6001684C6824F4E0644C6001680969AE
:1016D000446A2170416A491C4162418D491E41851D
:1016E00080F83D3090F83E1080F83E2040291DD013
:1016F00012210163FFF7D7F938BD046C44F02004D0
:1017000004644C6824F4E0644C6001680969446A2C
:101710002170416A491C4162418D491E418580F812
:101720003D3080F83E20FFF741F838BD0263FFF7F7
:10173000BDF938BD2400002010B5C26A90F83D10F4
:1017400021290BD1418D51B1416A0268097811619B
:10175000416A491C4162418D491E418510BD2023CB
:101760000021082A13D0202A11D012F5803F0ED074
:101770000268546824F4E06454601122026380F823
:101780003E1080F83D3000BFFFF78EF910BD0268B3
:10179000546824F4E06454600268146844F40074EB
:1017A0001460016380F83D3090F83E2080F83E10D0
:1017B000402AE9D1FFF7A4F910BD000010B590F858
:1017C0003D1090F83E30C26A048DB4B1212903D097
:1017D000402B11D122290FD1418DE1B390F83E1059
:1017E000402942D0416A026809781161416A491C66
:1017F0004162418D491E418510BD2129E8D1202338
:101800000021082A13D0202A11D012F5803F0ED0D3
:101810000268546824F4E06454601122026380F882
:101820003E1080F83D3000BFFFF73EF910BD026862
:10183000546824F4E06454600268146844F400744A
:101840001460016380F83D3090F83E2080F83E102F
:10185000402AE9D100E002E0FFF752F910BD00682C
:10186000416821F48061416010BDBDE8104000F086
:10187000F3B8000078B590F83E50C26A046B90F857
:101880003D6000230168222E73D1066D0EB9402DF4
:101890006FD0056D1DB90569B5F5404F1BD0458D5D
:1018A00095B3468D484D012E20D0448D022C4DD04D
:1018B0000C6844F480640C6001684C68240579D598
:1018C000AA4273D0012A71D0082A6FD0102A6DD095
:1018D000202A6BD06EE04A698A6900920A6842F455
:1018E00080720A60016D491C016578BDAA4214D15D
:1018F0000A6822F480620A6001684A68120504D509
:101900000A6822F4806217E0FFE74A698A69009258
:101910000A6842F400720A6050E0082A10D0202AB7
:101920000ED0122C0AD0042A03D0022A01D0102A89
:10193000E6D10A6842F480620A603BE0012ADFD007
:101940000A6822F480620A600168DEE7042A11D086
:10195000022A0FD0102A0DD00C6844F400640C60E9
:1019600001684C698C6900940C6824F480640C60F4
:1019700008E025E00C6844F480640C6001684C6960
:101980008969009101684C68240517D5AA4207D0DF
:10199000012A05D0082A03D0102A01D0202A0DD10F
:1019A0004A6842F480524A6008E0FFE74A6842F41D
:1019B00080524A6001684A6989690091036578BD6F
:1019C00048698869009078BD0000FFFF90F83E10DC
:1019D000402910D00169B1F5804F19D0016DA9B32C
:1019E000016D012910D1416C5FF0F10201F44071E9
:1019F00042EAD11106E0016D0029416C05D0C9B25F
:101A000041F0010100680161704701F0FE01F9E752
:101A100090F83D102129416C09D0C9B241F0010173
:101A200002681161416B29B1896A49B902E001F08C
:101A3000FE01F5E7816B0029E6D0896A0029E3D031
:101A40000068416841F4006141607047FFE7416C04
:101A5000F02201F44071CBE710B590F83D10026D13
:101A600022B3026D012A2FD0026D022A1DD1222934
:101A70002FD0428D0AB1212933D0428D002A14D1B2
:101A8000212912D101684A6822F4E0624A600168A3
:101A90000A6842F400720A6000210163202280F883
:101AA0003D2080F83E10FFF72BF810BDC16C0129D6
:101AB000816C02D0C1F3072108E00268C9B211614C
:101AC000016D891C016510BD816CC9B2026811618C
:101AD00004E001680A6842F480720A60016D491CE2
:101AE000F0E7416A026809781161416A491C416264
:101AF000418D491E418510BD38B50C4690F83D20FA
:101B000000212825954302680B4605D0516991694B
:101B1000009180F83C3038BD556825F480655560EB
:101B2000E243540700D50121120601D5828900E065
:101B3000028B80F83C3092B2FEF71FFD38BD0000EA
:101B4000F8B590F83D6004460068416821F4E06112
:101B500041602068002541690091016841F0010160
:101B600001602068016821F480610160206841689B
:101B7000090520D5474F222E48D02A2E46D0616B2A
:101B8000096849686185618D19B1216C41F00401D2
:101B90002164416821F400614160606BFEF7DAFB6B
:101BA000012808D0606B4763606BFEF787FB10B1BC
:101BB000606B416B8847608D08B320684169C943F9
:101BC000490708D40069616A0870606A401C606255
:101BD000608D401E608520684169C943490608D46C
:101BE0000069616A0870606A401C6062608D401E16
:101BF0006085608D18B1206C40F004002064206C7A
:101C000000B32046BDE8F840FFF70CBCA16B0968A3
:101C100049686185618D19B1216C41F0040121642D
:101C2000416821F400614160A06BFEF793FB01283D
:101C3000C1D0A06B4763A06BFEF740FB0028BAD071
:101C4000A06BB6E72A2E06D12563282084F83D0034
:101C50002046FFF767F894F83D10202028290DD082
:101C6000216B222901D0222E07D1256384F83D0063
:101C700084F83E502046FFF755F8F8BD0649E1626A
:101C8000256384F83D0084F83E502046FEF70AFFA5
:101C9000F8BD0000691300080000FFFF2DE9F047C0
:101CA0001E4690460D460446C1F30747DDF82090D6
:101CB00008E0701C06D0FEF759FCA0EB0900B0420A
:101CC0000FD876B12068012F18D0806925EA00006E
:101CD0000004000C14D000214145EAD00020BDE8EA
:101CE000F087002044F8300F20216173A073216930
:101CF00041F02001216120730120F0E74069E5E710
:101D00000121E9E770B586B00024184800940194D9
:101D100002940394816941F010018161816901F0AD
:101D200010010491816941F004018161816901F030
:101D300004010491816941F00801816180690C4EC0
:101D400000F008004FF40055049000222946304668
:101D5000FEF706FC01200095CDE901040220039066
:101D600069463046FEF70CFB06B070BD001002401D
:101D700000100140FEE7FEE770477047FEF7D4BF52
:101D800010B590B028216846FEF71EFA14210AA863
:101D9000FEF71AFA0220009001200490102000247F
:101DA000059007946846FFF733F908B172B6FEE76D
:101DB0000F20CDE90A040C940D9400210AA80E947A
:101DC000FFF74AF8002801D072B6FEE710B010BD48
:101DD0007047FEE70907090E002804DB00F1E02048
:101DE00080F80014704700F00F0000F1E02080F848
:101DF000141D70471CB5FEF79FFFFFF7C1FFFFF7EB
:101E000081FF334831494FF48042016031494160DC
:101E100000218160C0E9031241618161C1610162F9
:101E2000FEF7C6FC08B172B6FEE70020FEF739FAED
:101E3000294C20702A20FEF734FA60700E20FEF73D
:101E400030FAA0700720FEF72CFAE0701120FEF7A0
:101E500028FA20710720FEF724FA60711420FEF79B
:101E600020FAA0710726CDE9004601230022D021E7
:101E70001748FEF7B7FE0122DFF8608057033946A6
:101E80004046FEF76DFBB9460025A4F108070A237A
:101E9000012229460E48FEF74FFD28B93D70002269
:101EA00049464046FEF75CFB6D1CEDB2FF2DEED3BC
:101EB00041F28835CDE9004601230022D0210448B3
:101EC000FEF720FE2846FEF749FAF3E700540040EB
:101ED00028000020A086010008000020001001401A
:101EE00000000000000000000102030406070809CA
:101EF0000000000001020304181F00080000002079
:101F00002800000028010008401F000828000020C9
:101F1000B8060000440100080000000000000000B6
:101F200000000000000000000000000000000000B1
:101F30000100000010000000000000000024F40078
:04000005080000ED02
:00000001FF
