:020000040800F2
:10000000B007002089010008C3130008E3110008AD
:10001000C11300088F020008471600080000000006
:10002000000000000000000000000000C7130008EE
:100030001704000800000000C5130008C9130008D9
:10004000A3010008A3010008A3010008A301000800
:10005000A3010008A3010008A3010008A3010008F0
:10006000A3010008A3010008A3010008A3010008E0
:10007000A3010008A3010008A3010008A3010008D0
:10008000A3010008A3010008A3010008A3010008C0
:10009000A3010008A3010008A3010008A3010008B0
:1000A000A3010008A3010008A3010008A3010008A0
:1000B000A3010008A3010008A3010008A301000890
:1000C000A3010008A3010008A3010008A301000880
:1000D000A3010008A3010008A3010008A301000870
:1000E000A3010008A3010008A301000800F002F822
:1000F00000F03AF80AA090E8000C82448344AAF188
:100100000107DA4501D100F02FF8AFF2090EBAE885
:100110000F0013F0010F18BFFB1A43F0010318473B
:10012000BC190000DC190000103A24BF78C878C15F
:10013000FAD8520724BF30C830C144BF04680C60ED
:10014000704700000023002400250026103A28BF35
:1001500078C1FBD8520728BF30C148BF0B60704739
:100160001FB51FBD10B510BD00F058F81146FFF7C0
:10017000F7FF01F079FA00F076F803B4FFF7F2FF29
:1001800003BC00F07DF8000009488047094800479B
:10019000FEE7FEE7FEE7FEE7FEE7FEE7FEE7FEE737
:1001A000FEE7FEE704480549054A064B7047000094
:1001B0002B140008ED000008B0010020B00700205B
:1001C000B0030020B00300204FF0000200B513463A
:1001D00094469646203922BFA0E80C50A0E80C5067
:1001E000B1F12001BFF4F7AF090728BFA0E80C5018
:1001F00048BF0CC05DF804EB890028BF40F8042B11
:1002000008BF704748BF20F8022B11F0804F18BF7D
:1002100000F8012B7047704770477047754600F033
:100220002BF8AE4605006946534620F00700854688
:1002300018B020B5FFF7B6FFBDE820404FF000062C
:100240004FF000074FF000084FF0000B21F00701BE
:10025000AC46ACE8C009ACE8C009ACE8C009ACE801
:10026000C0098D46704710B50446AFF300802046A4
:10027000BDE81040FFF781BF0048704750010020E3
:1002800001491820ABBEFEE7260002007047FEE7DA
:1002900000F05EBE036800225A620068426A8A4229
:1002A000FCD370470068FFF7F5BF30B482608380ED
:1002B000016030BC0846FFF7EBBF2DE9F04107466F
:1002C000002500F061F800240126384600F021F8EE
:1002D0000028FAD028213846FFF7E4FF384600F01E
:1002E00018F880B1C4F1070106FA01F02843C5B23D
:1002F000384600F00EF80028FAD1641C082CE4DB24
:100300002846BDE8F081C4F1070006FA00F08543F5
:10031000EEE78188806800F081B900002DE9F047A0
:10032000044600F040F82046FFF7C7FF804620460D
:10033000FFF7C3FF06462046FFF7BFFF05462046EE
:10034000FFF7BBFF07462046FFF7B7FF814647EAA6
:10035000052046EA082501F049FB0A4E00223346F3
:1003600001F0ECF901F0B8F9E060284601F03EFB3D
:100370000022334601F0E2F901F0AEF9206148466F
:10038000BDE8F087000024401FB5002100910191D5
:100390000291039181880091012102918068694650
:1003A00000F04CF81FBD7FB500250446009501956F
:1003B000029503958088009001200190022003900F
:1003C0002E466946A06800F039F8A1883246A06838
:1003D00000F029F944F250612046FFF763FF204600
:1003E000FFF7D2FF28212046FFF75CFF2046FFF7EA
:1003F00090FF40B928212046FFF754FF2046FFF721
:1004000088FF00B101252046FFF783FF0028FAD1BD
:1004100004B0284670BD704770B5044600F008F976
:100420000546601C02D004480078044400F000F93E
:10043000401BA042FAD370BD000000202DE9F84F08
:10044000DFF8B891002409F1040A0AF1040B2346ED
:100450000F270BF1040EC9E00125A5402A40AA424E
:100460007DD1674ED1F804C0ACEB0608B44532D05C
:1004700014DCBCF1030F3AD009DCBCF1000F2AD028
:10048000BCF1010F1CD0BCF1020F31D11DE0BCF159
:10049000110F17D0BCF1120F2AD119E0B8F5881F3F
:1004A00019D006DCB8F5803F15D0B8F5801F1FD1F4
:1004B00011E0B8F5001F0ED0B8F5041F18D10AE0FE
:1004C000CB6815E0CB681B1D12E0CB6808330FE04A
:1004D000CB680C330CE08B682BB1012B4FF0080379
:1004E00003D0456104E0042302E0056100E000233D
:1004F000FF2A01D8064601E000F104064FEA840510
:1005000001D9A5F12005D6F8008007FA05FC28EAF4
:100510000C0803FA05F548EA0508C6F800804D689E
:10052000ED0062D5374DAE6946F00106AE61AD69AA
:1005300024F0030605F001050095334D06EB050C8C
:10054000DCF80850A607360F07FA06F825EA080572
:10055000DFF8B880404503D14FF0000817E044E0D1
:10056000DFF8AC80404502D14FF001080FE0DFF822
:10057000A480404502D14FF0020808E0DFF89880DF
:10058000404502D14FF0030801E04FF0040808FA9B
:1005900006F848EA0508CCF808804D68D9F80060EC
:1005A000ED034D4601D5164300E096432E604D689D
:1005B000DAF80060AD03554601D5164300E09643D6
:1005C0002E604D68DBF80060ED025D4601D51643F4
:1005D00000E096432E604D68DEF80060AD0275467F
:1005E00001D5164300E096432E60641C0D682A4630
:1005F000E5407FF431AFBDE8F88F00000004014012
:1006000000001110001002400000014000080140ED
:10061000000C0140001001400014014080680840B7
:1006200000D0012070470AB1016170470904FBE75F
:1006300001488068704700000000002070B5040089
:1006400025D094F83D00002520B984F83C50204680
:1006500000F0B8F8242084F83D002068016821F0FB
:10066000010101602068016841F4004101602068D7
:10067000016821F40041016000F0F2F94D4A61681F
:10068000914201D84C4900E04C49884201D20120F6
:1006900070BD4B492368B0FBF1F15E6826F03F0660
:1006A0000E435E606368934206D94FF496735943D4
:1006B0004FF47A73B1FBF3F12368491C1E6A26F0EC
:1006C0003F06314319626168914210D84900401ECB
:1006D000B0FBF1F2521CC2F30B02042A01D2042037
:1006E00022E0B0FBF1F0401CC0F30B001CE0A2685C
:1006F000F2B301EBC10303EB0116431EB3FBF6F3A8
:100700005B1C43F480431B0549D092B301EBC1024B
:1007100002EB0111401EB0FBF1F0401CC0F30B00D6
:1007200040F4804040F400402168CA694CF6FF73F1
:100730009A431043C861D4E9071001432068026856
:1007400022F0C00211430160D4E903010143206893
:10075000826848F2FF339A4311438160D4E905016E
:1007600008432168CA6822F0FF021043C86001E014
:100770000EE016E02068016841F001010160256487
:10078000202084F83D00256384F83E50002070BD91
:1007900001EB4106431EB3FBF6F35B1CB3E70120FC
:1007A000C2E701EB4101401EB0FBF1F0401CC0F379
:1007B0000B00B7E7A086010080841E0000093D0001
:1007C00040420F0010B586B00021009101910291C6
:1007D000039100680F4988421AD10F4CA06940F07C
:1007E0000800A061A069694600F008000490C020DC
:1007F000009012200190032003900848FFF71EFE8E
:10080000E06940F40010E061E06900F40010049039
:1008100006B010BD0054004000100240000C014022
:10082000024881680278114481607047000000200E
:10083000074810B5016841F010010160032000F085
:1008400067F80F2000F006F800F024F8002010BD33
:100850000020024070B50D4D04464FF47A7128789F
:10086000B1FBF0F00A490968B1FBF0F000F0CEFAF4
:1008700048B9102C07D200222146501E00F028F85B
:1008800000206C6070BD012070BD000000000020E1
:100890000C0000200C4808B5816941F0010181611C
:1008A000816901F001010091C16941F08051C1618C
:1008B000C06900F0805000900448416821F0E06178
:1008C00041F00071416008BD00100240000001408D
:1008D000F0B40E4B1B680C46C3F30223C3F10705AB
:1008E000042D00D90425191D072901D2002300E099
:1008F000DB1E012606FA05F1491E214099409E4063
:10090000761E16403143F0BC00F09EBE0CED00E0B8
:10091000064900F0070208684FF6FF03184040EA56
:100920000220034A10430860704700000CED00E00D
:100930000000FA052DE9F0470F46050061D0434E4F
:10094000306800F00700B84209D2306820F0070094
:1009500038433060306800F00700B84251D1286851
:100960003B4C810712D5400703D5606840F4E06036
:1009700060602878000703D5606840F460506060CC
:100980006068A96820F0F000084360602878C0071C
:1009900028D06868012810D02168022810D0890763
:1009A00000292EDA616821F0030101436160FFF73D
:1009B0003FFE804641F288390DE021688903EFE768
:1009C0008901EDE7FFF734FEA0EB0801494502D9A4
:1009D0000320BDE8F0876068696800F00C00B0EBA8
:1009E000810FEFD1306800F00700B8420BD93068B2
:1009F00020F0070038433060306800F00700B8424C
:100A000001D00120E5E72878400705D56068E9684E
:100A100020F4E060084360602878000706D560682D
:100A2000296920F4605040EAC100606000F028F8B5
:100A30006168084AC1F30311515CC8400649086067
:100A400006480068FFF706FF0020C2E700200240CA
:100A500000100240C41A00080C000020040000200E
:100A60000448054900684968044AC1F30221515C01
:100A7000C84070470C00002000100240D41A000843
:100A800012A185B00FC98DE80F0014A0144A0068A8
:100A900004905168134801F00C03042B10D0082B6C
:100AA0000ED1C1F38343C9031DF803000AD5516871
:100AB00004AAC1F34041515C0A4A5043B0FBF1F033
:100AC00005B0704708494843FAE7000002030405EF
:100AD000060708090A0B0C0D0E0F1010010200008A
:100AE0000010024000127A0000093D002DE9F84F85
:100AF000040070D02078C04DC00749D06868C0F3AA
:100B00008100012807D06868C0F38100022809D15C
:100B10006868C00306D52868800339D56068002856
:100B2000E7D035E06068B0F5803F0BD010B1B0F58C
:100B3000A02F11D0286820F480302860286820F485
:100B4000802002E0286840F480302860606890B11E
:100B5000FFF76EFD06460AE0286840F48020286012
:100B6000F0E700BFFFF764FD801B642873D8286896
:100B70008003F7D50CE0FFF75BFD064605E000BFFC
:100B8000FFF756FD801B6428F0D828688003F7D44F
:100B900020789A4E80074FF001094FF0000839D5B0
:100BA000686810F00C0F07D06868C0F38100022855
:100BB00009D16868C00306D42868800714D5206965
:100BC000012808D110E02069B0B1C6F80090FFF705
:100BD0002FFD074605E00AE1FFF72AFDC01B0228AA
:100BE000C4D828688007F7D52868616920F0F80024
:100BF00040EAC10028600DE0C6F80080FFF718FD4C
:100C0000074604E0FFF714FDC01B022823D828681C
:100C10008007F7D4207800072CD57948A169D9B18D
:100C2000C0F80090FFF704FD074604E0FFF700FD61
:100C3000C01B02280FD8686A8007F7D571484FF4A7
:100C4000FA510068B0FBF1F0009000BF0098411E1F
:100C50000091FAD20EE080E0C0F80080FFF7E8FCD7
:100C6000074604E0FFF7E4FCC01B022875D8686A59
:100C70008007F7D42078400760D5E8690027C000D6
:100C800008D4E86940F08050E861E869012700F085
:100C9000805000905C480168C90513D40168834600
:100CA00041F480710160FFF7C3FC824606E000BF9B
:100CB000FFF7BEFCA0EB0A0064284ED8DBF800006A
:100CC000C005F5D5E06801280AD008B1052813D081
:100CD000286A20F001002862286A20F0040002E05F
:100CE000286A40F001002862E06841F2883B98B130
:100CF000FFF79EFC82460BE0286A40F00400286261
:100D0000EEE700BFFFF794FCA0EB0A0159455AD863
:100D1000286A8007F6D50CE0FFF78AFC824605E0DA
:100D2000FFF786FCA0EB0A0159454CD8286A8007DA
:100D3000F6D41FB1E86920F08050E861E06988B31B
:100D40006968C1F38101022944D00228C6F8608095
:100D500004D0FFF76DFC044638E034E0FFF768FC90
:100D6000074604E0FFF764FCC01B02282BD8286864
:100D70008001F7D4206AB0F5803F05D16868A1688A
:100D800020F4003008436860D4E90801084369682A
:100D900021F4741108436860C6F86090FFF748FCBE
:100DA000044606E025E000BFFFF742FC001B0228D6
:100DB00009D828688001F7D51BE000BFFFF738FC91
:100DC000001B022802D90320BDE8F88F28688001A3
:100DD000F4D40EE00128F7D06868226A00F480316C
:100DE000914204D1616A00F47010884201D0012060
:100DF000EAE70020E8E7000000100240000042425D
:100E0000800442420C0000200070004010B5401EDB
:100E1000B0F1807F01D3012010BD4FF0E02460616C
:100E20000F21601700F010FC0020A0610720206156
:100E3000002010BD70B590F83C20012A26D0012476
:100E400080F83C40022280F83D2003685A689D6883
:100E500022F070060A6832435A600D4B02689A42CB
:100E600008D0B2F1804F05D00A4B9A4202D00A4B0B
:100E70009A4204D1496825F080031943916080F8B3
:100E80003D40002180F83C10084670BD022070BD36
:100E9000002C0140000400400008004010B5040090
:100EA00003D094F83D0010B107E0012010BD0020F0
:100EB00084F83C00204600F01FF8022084F83D0032
:100EC000211D206800F0B2FA012084F8460084F861
:100ED0003E0084F83F0084F8400084F8410084F824
:100EE000420084F8430084F8440084F8450084F804
:100EF0003D00002010BD000008B5124A01681248EC
:100F0000914207D1816941F400618161806900F4F7
:100F1000006014E0B1F1804F0AD00C4A91420FD129
:100F2000C16941F00401C161C06900F0040006E03C
:100F3000C16941F00101C161C06900F00100009088
:100F400008BD0000002C01400010024000080040D5
:100F500090F83D10012901D001207047022180F84E
:100F60003D1000680B49884208D0B0F1804F05D091
:100F70000949884202D00949884204D1816801F0B8
:100F80000701062903D0016841F00101016000203A
:100F900070470000002C01400004004000080040A1
:100FA00070B5044690F83C00012817D0012584F85C
:100FB0003C50022084F83D002068826822F07702CD
:100FC00022F47F4282600868502830D00DDC20284F
:100FD0004DD005DC98B310283BD148E0022070BD0D
:100FE000302844D0402834D139E0602828D07028F7
:100FF00006D0B0F5805F2CD0B0F5005F29D10AE0B3
:10100000CB68D1E90121206800F046FA20688168A8
:1010100041F0770109E0CB68D1E90121206800F0B7
:101020003BFA2068816841F48041816011E0CA6820
:101030004968206800F0E4FA5021206807E016E0D3
:10104000CA684968206800F0ECFA6021206800F066
:101050002DFA84F83D50002084F83C0070BDCA6829
:101060004968206800F0CCFA40212068EFE7226848
:1010700001461046EBE7000000B585B00021009165
:101080000191029103910068B0F1804F11D10A489B
:10109000816941F0040181618069694600F00400C2
:1010A0000490012000900220019003900348FFF774
:1010B000C5F905B000BD0000001002400008014065
:1010C00070B5044690F83C000D4601280AD0012076
:1010D00084F83C0042B1042A18D0082A2AD00C2AED
:1010E0004DD139E0022070BD206800F0E7F920689A
:1010F000816941F0080181612068816921F0040162
:101100008161206881692A69114311E0206800F03B
:10111000FDF92068816941F400618161206881697D
:1011200021F480618161206881692A6941EA022194
:10113000816124E0206800F015FA2068C16941F05F
:101140000801C1612068C16921F00401C161206802
:10115000C1692A69114311E0206800F02FFA206864
:10116000C16941F40061C1612068C16921F48061F5
:10117000C1612068C1692A6941EA0221C161002078
:1011800084F83C0070BD10B5040003D094F83D0015
:1011900010B107E0012010BD002084F83C0020467B
:1011A00000F01EF8022084F83D00211D206800F0A8
:1011B0003DF9012084F8460084F83E0084F83F00A1
:1011C00084F8400084F8410084F8420084F8430029
:1011D00084F8440084F8450084F83D00002010BDE8
:1011E0007047FEE770B586B000241848009401945B
:1011F00002940394816941F020018161816901F0C9
:1012000020010491816941F004018161816901F04B
:1012100004010491816941F00801816180690C4EEB
:1012200000F008004FF48045049000222946304623
:10123000FFF7F9F901200095CDE9010402200390A0
:1012400069463046FFF7FAF806B070BD001002405C
:10125000000C014010B586B000241748009401949A
:1012600002940394049413490594C0E900144FF6C2
:10127000FF71C0E90241046144618461FFF70EFE21
:1012800008B172B6FEE74FF48050009069460A48F4
:10129000FFF786FE08B172B6FEE7049404A906487B
:1012A0000594FFF7C7FD002801D072B6FEE706B02F
:1012B00010BD0000002C01407800002010B58EB059
:1012C00000240794089409940A940B941C216846FE
:1012D0000C94FEF779FF1F484FF08041016040F207
:1012E0001F31C0E9011440F2CF71C0E9031480211D
:1012F0008161FFF7D3FD08B172B6FEE74FF480506D
:10130000079007A91348FFF74BFE08B172B6FEE736
:101310001048FFF738FF08B172B6FEE70B940BA92F
:101320000C480C94FFF786FD08B172B6FEE760200A
:1013300000906420CDE90104002269460548049428
:10134000FFF7BEFE08B172B6FEE70248FFF794FE53
:101350000EB010BDC000002010B586B000241748A4
:101360000094019402940394049413490594016039
:101370004721C0E901144FF6FE71C0E903148461EE
:10138000FFF78CFD08B172B6FEE74FF48050009075
:1013900069460A48FFF704FE08B172B6FEE70494F6
:1013A00004A906480594FFF745FD002801D072B650
:1013B000FEE706B010BD0000000800400801002054
:1013C000FEE7FEE770477047FFF72ABA30B58FB0E7
:1013D00028216846FEF7F8FE14210AA8FEF7F4FE5D
:1013E00001210804CDE90010002402940225049193
:1013F000CDE907504FF4E01009906846FFF776FBFF
:1014000008B172B6FEE70F20CDE90A054FF48060FF
:10141000CDE90C4002210AA80E94FFF78BFA0028B0
:1014200001D072B6FEE70FB030BD7047F0B502686C
:10143000164B174C174D4FF08047984205D0B842D5
:1014400003D0A04201D0A84203D122F070064A681E
:101450003243984205D0B84203D0A04201D0A842FE
:1014600003D122F44074CA6822434C6922F08002FE
:10147000224302608A68C2620A688262984201D18D
:101480000969016301214161F0BD0000002C0140A8
:10149000000400400008004010B5846842EA0322BE
:1014A00024F47F440A432243826010BD826822F004
:1014B00070020A4342F007018160704730B5026A4A
:1014C00022F001020262026A4368846924F0730513
:1014D0000C682C4322F002058A682A430A4DA84270
:1014E0000BD122F00805CA6823F440732A434D69E2
:1014F00022F004021D438B692B43436084614968D9
:101500004163026230BD0000002C014030B5026A28
:1015100022F010020262026A436884690D6824F4B2
:10152000E64444EA05248D6822F0200242EA0512CE
:101530000B4DA8420ED1CD6822F0800242EA05127E
:101540004D6923F4406343EA85038D6922F040022C
:1015500043EA85034360846149688163026230BD68
:10156000002C014030B5026A22F480720262036AE4
:101570004268C46923F4007324F073050C682C439B
:101580008D6843EA05230C4DA8420ED1CD6823F4A3
:10159000006343EA05234D6922F4405242EA0512F2
:1015A0008D6923F4806342EA05124260C461496890
:1015B000C163036230BD0000002C014030B5026AF7
:1015C00022F480520262046A4268C3690D6823F4FF
:1015D000E64343EA05238D6824F4005444EA0534C5
:1015E000064DA84204D14D6922F4804242EA851298
:1015F0004260C36149680164046230BD002C01404F
:1016000010B5036A046A24F001040462846924F0BA
:10161000F00444EA021423F00A020A4384610262DD
:1016200010BD10B5036A23F0100303628369046AD6
:1016300023F4704343EA023224F0A00343EA011189
:101640008261016210BDFEE70907090E002804DB74
:1016500000F1E02080F80014704700F00F0000F166
:10166000E02080F8141D7047FFF7E2F8FFF7AEFEA8
:10167000FFF7B8FDFFF770FEFFF720FE1348124991
:101680004FF4804401601249416000218160C0E94B
:10169000031441618161C1610162FEF7CFFF08B1AE
:1016A00072B6FEE7FFF7D6FD08492346E431094A42
:1016B000A1F1F800FEF7F9FD04481438FEF72EFEFC
:1016C000C820FEF7A9FEF7E70054004024000020E0
:1016D000A0860100000C014021F00042A2F16052FE
:1016E000B2F5801F01F0004328BFD2F17F6C0BD907
:1016F0005FEA001C43EAC20242EB507018BF704719
:1017000028BF20F001007047B2F5801FBCBF18460B
:1017100070474FEA410C1CF5001F02D2084600F04A
:10172000CCB970B500F075F900000089FFF7F6BF7D
:101730004FF00040A0F58000704700002DE9C04147
:1017400030B4DFF8A0C23CEA111418BF3CEA13140D
:1017500000F0EC8081EA03051CEA111444EAD57418
:1017600018BF1CEA131500F0C780A4EB05044FF066
:10177000004545EAC12145EAC32341EA505143EA05
:10178000525304F17F74994204F500344FEAC020AB
:101790004FEAC22208BF904200F09C804FEA1365D6
:1017A0000FF24016765D4FEA134506FB05F7C7F1C9
:1017B000807706FB07F74FEAD737A7FB0368764227
:1017C000C8F58038A7FB06CE38BFA8F1010807FB93
:1017D00008E64FF0000EA6FB028CE6FB03CEDCF120
:1017E000000CCEF1004E38BFAEF1010EA6FB0C5836
:1017F0004FF000074FF00005E6FB0E87A1FB08C67F
:10180000A0FB07CE16EB0E0645F10005E1FB0765D0
:1018100015F1E04E7EBFA4F580345FEA46066D41C7
:1018200016F1800745F100054FEA17274FEA0666D3
:1018300047EA0567A6F1DE46B6F1805F4FEA152557
:101840001FD9384624F0010C05EBC471BCF1FE6FC2
:1018500001EB0C1102D8F0BCBDE8008124425CBF52
:1018600001F5801E9EEAC47F02D4F0BCBDE8008171
:10187000244238D4F0BCA1F1C041BDE8004100F0E1
:1018800016B94FEAD22242EA43524FEAD323A7FBCA
:1018900002864FEAD02040EA415007FB03661EEA69
:1018A0000E0F4FEAD12105FB026658BFA6EB00568A
:1018B000B6EB00564FEA520E4EEAC37E18EB0E0E00
:1018C00056EB530EBDD518EB02085E417F1C55F157
:1018D0000005B6E74FF480154FF000074FF0000603
:1018E0004FF00008ADE7F0BC4FF0000001F1C0413F
:1018F00001F00041BDE8008111EA0C1F0CEA13154C
:1019000000D00CE013EA0C1F00F025804FF000001F
:10191000F0BC81EA030101F00041BDE80081F0BCA8
:10192000BDE8004181EA030100F0C1B8F0BCBDE8A8
:10193000004170B500F06DF8097EFC3E00F007B87C
:1019400081EA03014FF0000001F00041704781EA95
:10195000030100F0ACB8F0BCBDE800414FF000005E
:1019600021497047FFFDFBF9F7F5F4F2F0EEEDEBDE
:10197000E9E8E6E4E3E1E0DEDDDBDAD8D7D5D4D38D
:10198000D1D0CFCDCCCBCAC8C7C6C5C4C2C1C0BFD9
:10199000BEBDBCBBBAB9B8B7B6B5B4B3B2B1B0AFDF
:1019A000AEADACABAAA9A8A8A7A6A5A4A3A3A2A1C3
:1019B000A09F9F9E9D9C9C9B9A999998979796957E
:1019C00095949393929191908F8F8E8E8D8C8C8B1A
:1019D0008B8A8989888887878685858484838382A2
:1019E000828181800000FF070000F87FB0FA80F359
:1019F00010FA03F10AD0C3F11D0303F580634FEA27
:101A000041504FEA035202EBD12170474FF00000E2
:101A100070470EF1020E2EF0030E5EF8046B364294
:101A200005D4012A43EB030515F5001F12D8012840
:101A300041EB010C1CF5001F0CD80ED14FEAD17CF4
:101A400015F5001F0CEB4C0C0CF1020C08BF4CEB15
:101A5000D37C04E04FF0080C01E04FEAD37C0CEBA0
:101A60004C0526FA05F606F00706B6F1040C06D278
:101A70000EEB860CBDE870404CF0010C6047DFE8CF
:101A80000CF0090B02024FF000414FF00000A1F5ED
:101A9000002170BD19461046012851EB010418BF02
:101AA000D4F5001484BF002001F0004170BD080887
:101AB000A0F500114FEA31017047FF2141EAD050F3
:101AC000C005704700000000000000000102030490
:101AD000060708090000000001020304FC1A0008C0
:101AE0000000002010000000280100080C1B000866
:101AF00010000020A00700004401000801000000C1
:0C1B000010000000000000000024F400B1
:04000005080000ED02
:00000001FF
