:020000040800F2
:1000000030070020890100084F26000871180008F9
:100010004D260008A1020008732900080000000016
:10002000000000000000000000000000532600084F
:10003000AF0300080000000051260008E126000878
:10004000A3010008A3010008A3010008A301000800
:10005000A3010008A3010008A3010008A3010008F0
:10006000A3010008A3010008A3010008A3010008E0
:10007000A3010008A3010008A3010008A3010008D0
:10008000A3010008A3010008A3010008A3010008C0
:10009000A3010008A3010008A3010008A3010008B0
:1000A000A3010008A3010008A3010008A3010008A0
:1000B000A3010008A3010008A301000875180008A7
:1000C000A3010008A3010008A3010008A301000880
:1000D000A3010008A3010008A3010008A301000870
:1000E000A3010008A3010008A301000800F002F822
:1000F00000F03AF80AA090E8000C82448344AAF188
:100100000107DA4501D100F02FF8AFF2090EBAE885
:100110000F0013F0010F18BFFB1A43F0010318473B
:100120006429000084290000103A24BF78C878C1EF
:10013000FAD8520724BF30C830C144BF04680C60ED
:10014000704700000023002400250026103A28BF35
:1001500078C1FBD8520728BF30C148BF0B60704739
:100160001FB51FBD10B510BD00F058F81146FFF7C0
:10017000F7FF02F00FFC00F076F803B4FFF7F2FF90
:1001800003BC00F07DF8000009488047094800479B
:10019000FEE7FEE7FEE7FEE7FEE7FEE7FEE7FEE737
:1001A000FEE7FEE704480549054A064B7047000094
:1001B00039270008ED00000830010020300700203A
:1001C00030030020300300204FF0000200B513463A
:1001D00094469646203922BFA0E80C50A0E80C5067
:1001E000B1F12001BFF4F7AF090728BFA0E80C5018
:1001F00048BF0CC05DF804EB890028BF40F8042B11
:1002000008BF704748BF20F8022B11F0804F18BF7D
:1002100000F8012B7047704770477047754600F033
:100220002BF8AE4605006946534620F00700854688
:1002300018B020B5FFF7B6FFBDE820404FF000062C
:100240004FF000074FF000084FF0000B21F00701BE
:10025000AC46ACE8C009ACE8C009ACE8C009ACE801
:10026000C0098D46704710B50446AFF300802046A4
:10027000BDE81040FFF781BF00487047D000002064
:1002800001491820ABBEFEE726000200704700F0CF
:100290000F01000900EB800001EB4000C0B2704785
:1002A000FEE70A21B0FBF1F201FB1202B0FBF1F014
:1002B00042EA0010C0B270473EB504464FF47A726D
:1002C00004210E308DE8070001230322D02120688D
:1002D00000F0ACFBA07BFFF7DAFF6075E07BFFF777
:1002E000D6FFA075207CFFF7D2FFE075607CFFF79A
:1002F000CEFF20763EBD3EB504464FF47A72032110
:100300000B308DE8070001230022D021206800F087
:100310008DFBE07AFFF7BBFF2075207BFFF7B7FF6F
:10032000E074607BFFF7B3FFA0743EBD01607047CF
:10033000FEB504461E4617460846089DFFF7B1FF66
:10034000E0713846FFF7ADFF20723046FFF7A9FF96
:1003500060722846FFF7A5FFA0724FF47A7204215D
:10036000E01D8DE8070001230322D021206800F062
:1003700085FCFEBDFEB5044615460E461846FFF741
:1003800090FF20712846FFF78CFF60713046FFF721
:1003900088FFA0714FF47A720321201D8DE80700B9
:1003A00001230022D021206800F068FCFEBD7047C8
:1003B00010B590F821100024022903D00421816394
:1003C00001243DE001680A6822F00E020A6001681B
:1003D0000A6822F001020A601A4A0168914201D1BA
:1003E000012121E0174A1432914201D110211BE072
:1003F000144A2832914201D1891515E0114A3C3244
:10040000914201D189140FE00E4A5032914202D13B
:100410004FF4803108E00B4A6432914202D14FF42C
:10042000801101E04FF08071064A083A51600121C5
:1004300080F82110002180F82010416B01B188471D
:10044000204610BD0800024090F8210070470000CF
:1004500070B5044600F0FEF80546601C02D0044862
:100460000078044400F0F6F8401BA042FAD370BDB7
:10047000080000202DE9F84FDFF8B891002409F1B9
:10048000040A0AF1040B23460F270BF1040EC9E0FE
:100490000125A5402A40AA427DD1674ED1F804C06B
:1004A000ACEB0608B44532D014DCBCF1030F3AD0F3
:1004B00009DCBCF1000F2AD0BCF1010F1CD0BCF14B
:1004C000020F31D11DE0BCF1110F17D0BCF1120F9A
:1004D0002AD119E0B8F5881F19D006DCB8F5803F9D
:1004E00015D0B8F5801F1FD111E0B8F5001F0ED050
:1004F000B8F5041F18D10AE0CB6815E0CB681B1DC6
:1005000012E0CB6808330FE0CB680C330CE08B684B
:100510002BB1012B4FF0080303D0456104E0042305
:1005200002E0056100E00023FF2A01D8064601E051
:1005300000F104064FEA840501D9A5F12005D6F89B
:10054000008007FA05FC28EA0C0803FA05F548EADA
:100550000508C6F800804D68ED0062D5374DAE69DC
:1005600046F00106AE61AD6924F0030605F0010511
:100570000095334D06EB050CDCF80850A607360F46
:1005800007FA06F825EA0805DFF8B880404503D1E8
:100590004FF0000817E044E0DFF8AC80404502D19E
:1005A0004FF001080FE0DFF8A480404502D14FF082
:1005B000020808E0DFF89880404502D14FF00308B8
:1005C00001E04FF0040808FA06F848EA0508CCF8FC
:1005D00008804D68D9F80060ED034D4601D51643FB
:1005E00000E096432E604D68DAF80060AD03554692
:1005F00001D5164300E096432E604D68DBF800609D
:10060000ED025D4601D5164300E096432E604D682D
:10061000DEF80060AD02754601D5164300E0964352
:100620002E60641C0D682A46E5407FF431AFBDE8BA
:10063000F88F00000004014000001110001002407B
:100640000000014000080140000C01400010014082
:100650000014014001488068704700000800002035
:10066000704770472DE9F047026800215368C66A59
:1006700090F83E4090F83D50102C12D0402C10D0F5
:10068000046C002C7DD05469E443A6077AD4DE4381
:10069000B60577D4036C03B19169BDE8F04701F06A
:1006A0009FBD976951694FF42A0CC9435FEAC1782D
:1006B0004FF02A4904D066452AD04E4528D010E094
:1006C000DE43B6050DD4C16A614501D1012103E0C5
:1006D000C16A494501D10821C162BDE8F04701F076
:1006E00017BC0E0716D4DE43B60513D4416CC9B24D
:1006F0001161416B09B1896A29B9816B002907D061
:10070000896A002904D00068416841F400614160B1
:10071000BDE8F0878E0706D4DE43B60503D4BDE8F6
:10072000F04701F049BBFE43526876074FEA025298
:100730001DD4002AECDB0A0608D4DA43520505D49E
:10074000490705D5BDE8F04701F0DABA4907DFD41B
:10075000D9438905DCD4212D05D0402CD8D1BDE862
:10076000F04701F01BBCBDE8F04701F087BA002A52
:10077000CEDB4A060BD4DA43520508D4490708D524
:1007800001E00DE00EE0BDE8F04701F003BA4907D3
:10079000BED4D9438905BBD4BDE8F04701F091B977
:1007A000916970E7E10606D4D943890503D4BDE811
:1007B000F04701F039BD2821212D27D0292D25D042
:1007C000650655D4DD436D0552D4640752D590F8C3
:1007D0003D30448D002C9BD01269446A2270426ADD
:1007E000521C4262428D521E4285428D002A8FD198
:1007F0002A2B8DD10268536823F480635360222230
:10080000026380F83D1000F007FB81E7250623D442
:10081000DD436D0520D4640720D590F83D30448D2C
:10082000002CF2D0446A24781461426A521C42625D
:10083000428D521E4285428D002AE6D1292BE4D1F9
:100840000268536823F4806353602122026380F8B6
:100850003D1000F0E2FA5BE76107D6D4D943890581
:10086000D3D4418D0029D0D0416A097811610AE0C2
:100870006107CAD4D9438905C7D4418D0029C4D0A2
:100880001169426A1170416A491C4162418D491ED9
:1008900041853DE77047000070B5040025D094F80D
:1008A0003D00002520B984F83C50204600F07EFA37
:1008B000242084F83D002068016821F001010160D6
:1008C0002068016841F4004101602068016821F45A
:1008D0000041016000F0D0FB4D4A6168914201D8AF
:1008E0004C4900E04C49884201D2012070BD4B497F
:1008F0002368B0FBF1F15E6826F03F060E435E60B0
:100900006368934206D94FF4967359434FF47A7350
:10091000B1FBF3F12368491C1E6A26F03F06314300
:1009200019626168914210D84900401EB0FBF1F293
:10093000521CC2F30B02042A01D2042022E0B0FBB5
:10094000F1F0401CC0F30B001CE0A268F2B301EB15
:10095000C10303EB0116431EB3FBF6F35B1C43F428
:1009600080431B0549D092B301EBC10202EB011198
:10097000401EB0FBF1F0401CC0F30B0040F480407F
:1009800040F400402168CA694CF6FF739A43104353
:10099000C861D4E9071001432068026822F0C00250
:1009A00011430160D4E9030101432068826848F2E1
:1009B000FF339A4311438160D4E90501084321685C
:1009C000CA6822F0FF021043C86001E00EE016E0A2
:1009D0002068016841F0010101602564202084F84D
:1009E0003D00256384F83E50002070BD01EB4106B8
:1009F000431EB3FBF6F35B1CB3E70120C2E701EB38
:100A00004101401EB0FBF1F0401CC0F30B00B7E702
:100A1000A086010080841E0000093D0040420F00B6
:100A20007047704770477047704700002DE9FF4FCF
:100A300083B00025DDE910799A4693460446DDF837
:100A400048800095FFF706FE064694F83D002028F2
:100A50007CD11923012285492046009601F0B8FC7B
:100A60000028F5D194F83C0001286FD0012084F8CB
:100A70003C0020680168C90703D1016841F0010109
:100A800001602068016821F400610160222084F87F
:100A90003D00402084F83E0025646762A4F82A9057
:100AA000608D20857248E062CDE9008653465A4643
:100AB0002046049901F0C2FA00287DD1208DDFF88C
:100AC000B491202768B1012814D002282068016859
:100AD0001ED041F480610160206841698069009006
:100AE000B6E02068416981690091016841F40071B4
:100AF0000160ADE02068016821F48061016072B698
:100B00002068416981690091016841F400710AE03F
:100B100041F40061016072B6206841698169009109
:100B2000016821F48061016062B691E0032868D811
:100B300001280CD0022843464FF0000249462046C7
:100B400000960FD001F044FCB0BB10E08BE03246C1
:100B50004146204601F0BBFC70BB20680069616A19
:100B600008706CE001F034FC30BB72B634E02068F1
:100B7000016821F48061016072B620680069616AD1
:100B80000870606A401C6062208D401E2085608D68
:100B9000401E6085384846F2A8110068B0FBF1F0AD
:100BA000C0EBC00000EB80000090401E009008D019
:100BB00020684069C04300E029E040070CD5009858
:100BC000F3E744F8305F6773A573206940F02000B5
:100BD000206162B625731AE02068016841F4007153
:100BE000016020680069616A0870606A401C606288
:100BF000218D491E2185618D491E618562B621685E
:100C00001BE032464146204601F061FC18B101204C
:100C100007B0BDE8F08F20680069616A0870606AFB
:100C2000401C6062218D491E2185618D491E6185B0
:100C300021684A69D24352070AD409690170606A7F
:100C4000401C6062208D401E2085608D401E6085A6
:100C5000208D00287FF46AAF84F83D7084F83E5000
:100C600084F83C50D4E70220D2E7000002001000D4
:100C70000000FFFF04000100140000202DE9FF4FD9
:100C800083B09A46DDE9119793460446DDF840802B
:100C9000FFF7E0FC054694F83D0020287FD119239A
:100CA000012240492046009501F092FB002876D1B0
:100CB00094F83C00012872D0012084F83C002068A0
:100CC0000168C90703D1016841F001010160206892
:100CD000016821F400610160212084F83D0040207A
:100CE00084F83E0000262664C4F82480A4F82A90E4
:100CF000608D20852C48E062CDE9007553465A4648
:100D00002046049901F018FA70B930E02A463946B5
:100D1000204601F00FFC58B1206C042804D1206853
:100D2000016841F400710160012007B0BDE8F08F57
:100D3000606A216800780861606A401C6062218DE9
:100D4000491E89B22185628D521E628522685369CF
:100D5000DB435B070BD469B100781061606A401C0B
:100D60006062208D401E2085608D401E6085208D34
:100D70000028CBD12A463946204601F003FB002843
:100D8000CAD154F83D0B016841F400710160202084
:100D900004F81E09E67766770020C6E7FFE7022021
:100DA000C3E70000020010000000FFFF10B586B08E
:100DB000002100910191029103910068134988423A
:100DC00022D1134CA06940F00800A061A0696946D7
:100DD00000F008000490C020009012200190032031
:100DE00003900C48FFF746FBE06940F40010E06117
:100DF000E069002200F40010049011461F2000F06A
:100E000073F81F2000F062F806B010BD00540040D7
:100E100000100240000C0140704770470248816892
:100E2000027811448160704708000020074810B51F
:100E3000016841F010010160032000F075F80F20F7
:100E400000F006F800F024F8002010BD0020024059
:100E500070B50D4D04464FF47A712878B1FBF0F06F
:100E60000A490968B1FBF0F000F0DCFA48B9102C2F
:100E700007D200222146501E00F036F800206C6098
:100E800070BD012070BD000008000020140000208B
:100E90000C4808B5816941F001018161816901F067
:100EA00001010091C16941F08051C161C06900F048
:100EB000805000900448416821F0E06141F00071E9
:100EC000416008BD0010024000000140002809DB1D
:100ED00000F01F02012191404009800000F1E02054
:100EE000C0F8001170470000F0B40E4B1B680C46B0
:100EF000C3F30223C3F10705042D00D90425191DEE
:100F0000072901D2002300E0DB1E012606FA05F1C5
:100F1000491E214099409E40761E16403143F0BC48
:100F200001F028BD0CED00E0064900F0070208685A
:100F30004FF6FF03184040EA0220034A10430860BE
:100F4000704700000CED00E00000FA052DE9F047C5
:100F50000F46050061D0434E306800F00700B842EC
:100F600009D2306820F0070038433060306800F064
:100F70000700B84251D128683B4C810712D5400781
:100F800003D5606840F4E06060602878000703D50E
:100F9000606840F4605060606068A96820F0F0000C
:100FA000084360602878C00728D06868012810D0FE
:100FB0002168022810D0890700292EDA616821F003
:100FC000030101436160FFF745FB804641F2883928
:100FD0000DE021688903EFE78901EDE7FFF73AFBB0
:100FE000A0EB0801494502D90320BDE8F0876068FD
:100FF000696800F00C00B0EB810FEFD1306800F0B1
:101000000700B8420BD9306820F007003843306041
:10101000306800F00700B84201D00120E5E72878E9
:10102000400705D56068E96820F4E0600843606027
:101030002878000706D56068296920F4605040EAE6
:10104000C100606000F028F86168084AC1F303112C
:10105000515CC8400649086006480068FFF7F8FE82
:101060000020C2E700200240001002406C2A000865
:10107000140000200C00002004480549006849685D
:10108000044AC1F30221515CC8407047140000209B
:10109000001002407C2A000812A185B00FC98DE81B
:1010A0000F0014A0144A006804905168134801F01E
:1010B0000C03042B10D0082B0ED1C1F38343C903BA
:1010C0001DF803000AD5516804AAC1F34041515CE0
:1010D0000A4A5043B0FBF1F005B070470849484355
:1010E000FAE7000002030405060708090A0B0C0DC5
:1010F0000E0F1010010200000010024000127A00D2
:1011000000093D002DE9F84F040070D02078C04D53
:10111000C00749D06868C0F38100012807D068681B
:10112000C0F38100022809D16868C00306D5286889
:10113000800339D560680028E7D035E06068B0F5F5
:10114000803F0BD010B1B0F5A02F11D0286820F44B
:1011500080302860286820F4802002E0286840F46D
:1011600080302860606890B1FFF774FA06460AE0A4
:10117000286840F480202860F0E700BFFFF76AFA93
:10118000801B642873D828688003F7D50CE0FFF72C
:1011900061FA064605E000BFFFF75CFA801B642891
:1011A000F0D828688003F7D420789A4E80074FF053
:1011B00001094FF0000839D5686810F00C0F07D00E
:1011C0006868C0F38100022809D16868C00306D4AA
:1011D0002868800714D52069012808D110E020690B
:1011E000B0B1C6F80090FFF735FA074605E00AE10E
:1011F000FFF730FAC01B0228C4D828688007F7D54B
:101200002868616920F0F80040EAC10028600DE01C
:10121000C6F80080FFF71EFA074604E0FFF71AFA47
:10122000C01B022823D828688007F7D4207800073D
:101230002CD57948A169D9B1C0F80090FFF70AFA16
:10124000074604E0FFF706FAC01B02280FD8686AB9
:101250008007F7D571484FF4FA510068B0FBF1F000
:10126000009000BF0098411E0091FAD20EE080E08D
:10127000C0F80080FFF7EEF9074604E0FFF7EAF94F
:10128000C01B022875D8686A8007F7D42078400709
:1012900060D5E8690027C00008D4E86940F08050B4
:1012A000E861E869012700F0805000905C4801681F
:1012B000C90513D40168834641F480710160FFF7CA
:1012C000C9F9824606E000BFFFF7C4F9A0EB0A00A7
:1012D00064284ED8DBF80000C005F5D5E068012889
:1012E0000AD008B1052813D0286A20F0010028622E
:1012F000286A20F0040002E0286A40F00100286219
:10130000E06841F2883B98B1FFF7A4F982460BE010
:10131000286A40F004002862EEE700BFFFF79AF960
:10132000A0EB0A0159455AD8286A8007F6D50CE087
:10133000FFF790F9824605E0FFF78CF9A0EB0A0170
:1013400059454CD8286A8007F6D41FB1E86920F0C7
:101350008050E861E06988B36968C1F381010229BE
:1013600044D00228C6F8608004D0FFF773F9044621
:1013700038E034E0FFF76EF9074604E0FFF76AF95A
:10138000C01B02282BD828688001F7D4206AB0F54A
:10139000803F05D16868A16820F400300843686088
:1013A000D4E908010843696821F4741108436860AE
:1013B000C6F86090FFF74EF9044606E025E000BF4E
:1013C000FFF748F9001B022809D828688001F7D5E3
:1013D0001BE000BFFFF73EF9001B022802D90320E3
:1013E000BDE8F88F28688001F4D40EE00128F7D01A
:1013F0006868226A00F48031914204D1616A00F485
:101400007010884201D00120EAE70020E8E70000E0
:1014100000100240000042428004424214000020BA
:101420000070004010B5401EB0F1807F01D3012054
:1014300010BD4FF0E02460610F21601701F09AFAAF
:101440000020A06107202061002010BD10B590F899
:101450003C20012A22D0012280F83C20CA688C68F6
:1014600022F4407222434C6822F4806222430C68CA
:1014700022F4006222430C6922F4805222434C6918
:1014800022F400522243C969002322F480420A4315
:1014900001684A6480F83C30002010BD022010BD75
:1014A00070B590F83C20012A26D0012480F83C40F9
:1014B000022280F83D2003685A689D6822F0700679
:1014C0000A6832435A600D4B02689A4208D0B2F162
:1014D000804F05D00A4B9A4202D00A4B9A4204D15F
:1014E000496825F080031943916080F83D40002150
:1014F00080F83C10084670BD022070BD002C0140F1
:10150000000400400008004010B5040003D094F827
:101510003D0010B107E0012010BD002084F83C0020
:10152000204600F01FF8022084F83D00211D2068AD
:1015300001F004F9012084F8460084F83E0084F8A4
:101540003F0084F8400084F8410084F8420084F8A9
:10155000430084F8440084F8450084F83D000020EE
:1015600010BD000008B500680649884208D1064849
:10157000816941F400618161806900F4006000903C
:1015800008BD0000002C01400010024070B5044668
:1015900090F83C00012817D0012584F83C50022027
:1015A00084F83D002068826822F0770222F47F42AE
:1015B00082600868502830D00DDC20284DD005DC32
:1015C00098B310283BD148E0022070BD302844D0A9
:1015D000402834D139E0602828D0702806D0B0F5F2
:1015E000805F2CD0B0F5005F29D10AE0CB68D1E94B
:1015F0000121206801F0E5F82068816841F0770159
:1016000009E0CB68D1E90121206801F0DAF820680F
:10161000816841F48041816011E0CA6849682068AE
:1016200001F084F95021206807E016E0CA68496893
:10163000206801F08CF96021206801F0CCF884F872
:101640003D50002084F83C0070BDCA68496820689D
:1016500001F06CF940212068EFE72268014610464E
:10166000EBE7000000B585B00021009101910291E7
:10167000039100680B49884212D10B48816941F0FF
:10168000040181618069694600F0040004904FF410
:10169000807000900220019003900448FEF7EAFE5B
:1016A00005B000BD002C01400010024000080140C0
:1016B00070B5044690F83C000D4601280AD0012080
:1016C00084F83C0042B1042A18D0082A2AD00C2AF7
:1016D0004DD139E0022070BD206801F085F8206806
:1016E000816941F0080181612068816921F004016C
:1016F0008161206881692A69114311E0206801F045
:101700009BF82068816941F40061816120688169EA
:1017100021F480618161206881692A6941EA02219E
:10172000816124E0206801F0B3F82068C16941F0CC
:101730000801C1612068C16921F00401C16120680C
:10174000C1692A69114311E0206801F0CDF82068D1
:10175000C16941F40061C1612068C16921F48061FF
:10176000C1612068C1692A6941EA0221C161002082
:1017700084F83C0070BD10B5040003D094F83D001F
:1017800010B107E0012010BD002084F83C00204685
:1017900000F01EF8022084F83D00211D206800F0B2
:1017A000CDFF012084F8460084F83E0084F83F0015
:1017B00084F8400084F8410084F8420084F8430033
:1017C00084F8440084F8450084F83D00002010BDF2
:1017D0007047000010B50446022249B104290ED01A
:1017E000082913D094F84100012816D0012010BD1B
:1017F00094F83E000128F9D184F83E200FE094F8D7
:101800003F000128F2D184F83F2008E094F840001E
:101810000128EBD184F8402001E084F84120012226
:10182000206800F0C1FF0F492068884203D1426C54
:1018300042F4004242642068884208D0B0F1804FF0
:1018400005D00949884202D00849884204D18168FC
:1018500001F00701062903D0016841F00101016090
:10186000002010BD002C0140000400400008004092
:10187000FEE700000148FEF7F5BE0000340000203E
:1018800038B5406A002190F83D202B4B46F2A81451
:101890001B68B3FBF4F3C3EBC30303EB83030093B5
:1018A0003BB15B1E009303681B689B0505D5009B3D
:1018B000F6E7036C43F020030364436B03B19962C2
:1018C000836B03B1996203681C6824F480641C6014
:1018D0004185436B03B15963836B03B1596303685B
:1018E0001C6824F001041C6090F83D402023602C0B
:1018F0000BD0282434EA02020FD080F83D3080F863
:101900003E1000BFFEF7C6FF38BD80F83D3080F8BE
:101910003E100164FEF7A4FE38BD0268136843F070
:10192000010313600268136843F48063136001636A
:1019300080F83D40E6E700001400002070B5044642
:1019400090F83D0094F83E10102901D0402906D1AE
:10195000222804D121680A6822F400620A60282142
:1019600031EA00024FF000054FF0200626D0216832
:101970004968090505D4602803D084F83D6084F8DF
:101980003E50256320684168090537D5416821F438
:1019900000614160606B3D4990F82120012A11D01F
:1019A0004163606BFEF704FD38B32068016821F0E5
:1019B0000101016084F83D60606B1CE0256384F8E0
:1019C0003D10DFE7A06B4163A06BFEF7F1FCA0B117
:1019D00020684169C943490605D40069616A0870F5
:1019E000606A401C60622068016821F001010160AA
:1019F00084F83D60A06B416B884710E094F83D107F
:101A0000602910D04169C943490605D40069616A5B
:101A10000870606A401C60622046FEF73BFF206C45
:101A2000C1071CD115E084F83D6025644169C943B4
:101A3000490605D40069616A0870606A401C6062EA
:101A40002068016821F0010101602046FEF708FED0
:101A5000E5E7810703D4410701D4000704D52068D6
:101A6000416821F4E061416094F83D00216C490730
:101A70000BD5282809D10648E062256384F83D602B
:101A800084F83E502046FEF7CBFF70BD8118000859
:101A90000000FFFF01684A69D24352050FD46FF47A
:101AA00080624A61002140F8301F20224273817316
:101AB000026942F0040202610173012070470020B4
:101AC000704710B5C26A438D0168042B06D0438D60
:101AD000032B08D0438D022B1DD012E04A6822F45C
:101AE00080624A600CE04B6823F480634B60042AF8
:101AF00006D0022A04D001680A6822F480620A60D3
:101B000001680969426A1170416A491C4162418D4C
:101B1000491E418510BD012A30D0102A2ED0042A3A
:101B200030D0022A2ED00A6842F400720A6001689E
:101B30000969426A1170416A491C4162428D521E14
:101B40004285026812690A70416A491C4162418DEE
:101B5000491E418501684A6822F440724A6020218A
:101B600080F83D1090F83E200021402A80F83E1079
:101B70000CD012210163FEF754FF10BD0A6822F455
:101B80008062D3E70A6842F48062CFE70163FEF720
:101B90004AFF10BD38B590F83D10222914D1418D6F
:101BA000032912D901680969426A1170416A491C06
:101BB0004162418D491E4185418D032904D1006850
:101BC000416821F48061416038BDC26A022AFBD0BD
:101BD000012901D00029F7D1274946F2A813002294
:101BE0000968B1FBF3F101EB810100910168202349
:101BF000009C641E009422D00C68A405F8D40C68E4
:101C000024F480640C6001684C6824F4E0644C6047
:101C100001680969446A2170416A491C4162418D29
:101C2000491E418580F83D3090F83E1080F83E20F6
:101C300040291DD012210163FEF7F3FE38BD046C6C
:101C400044F0200404644C6824F4E0644C600168AF
:101C50000969446A2170416A491C4162418D491EEB
:101C6000418580F83D3080F83E20FEF713FE38BDF8
:101C70000263FEF7D8FE38BD1400002010B5C26A1A
:101C800090F83D1021290BD1418D51B1416A026874
:101C900009781161416A491C4162418D491E4185A3
:101CA00010BD20230021082A13D0202A11D012F5BC
:101CB000803F0ED00268546824F4E064546011221E
:101CC000026380F83E1080F83D3000BFFEF7AAFEA8
:101CD00010BD0268546824F4E0645460026814681B
:101CE00044F400741460016380F83D3090F83E20A5
:101CF00080F83E10402AE9D1FEF796FE10BD0000A4
:101D000010B590F83D1090F83E30C26A048DB4B121
:101D1000212903D0402B11D122290FD1418DE1B3CC
:101D200090F83E10402942D0416A0268097811615A
:101D3000416A491C4162418D491E418510BD2129DE
:101D4000E8D120230021082A13D0202A11D012F52F
:101D5000803F0ED00268546824F4E064546011227D
:101D6000026380F83E1080F83D3000BFFEF75AFE57
:101D700010BD0268546824F4E0645460026814687A
:101D800044F400741460016380F83D3090F83E2004
:101D900080F83E10402AE9D100E002E0FEF744FE60
:101DA00010BD0068416821F48061416010BDBDE84C
:101DB000104000F0F3B8000078B590F83E50C26AC9
:101DC000046B90F83D6000230168222E73D1066DEC
:101DD0000EB9402D6FD0056D1DB90569B5F5404FA1
:101DE0001BD0458D95B3468D484D012E20D0448D96
:101DF000022C4DD00C6844F480640C6001684C687F
:101E0000240579D5AA4273D0012A71D0082A6FD04F
:101E1000102A6DD0202A6BD06EE04A698A69009240
:101E20000A6842F480720A60016D491C016578BD40
:101E3000AA4214D10A6822F480620A6001684A68E2
:101E4000120504D50A6822F4806217E0FFE74A69A8
:101E50008A6900920A6842F400720A6050E0082A17
:101E600010D0202A0ED0122C0AD0042A03D0022A25
:101E700001D0102AE6D10A6842F480620A603BE091
:101E8000012ADFD00A6822F480620A600168DEE776
:101E9000042A11D0022A0FD0102A0DD00C6844F465
:101EA00000640C6001684C698C6900940C6824F42F
:101EB00080640C6008E025E00C6844F480640C60E9
:101EC00001684C698969009101684C68240517D53F
:101ED000AA4207D0012A05D0082A03D0102A01D02F
:101EE000202A0DD14A6842F480524A6008E0FFE798
:101EF0004A6842F480524A6001684A6989690091DF
:101F0000036578BD48698869009078BD0000FFFFCF
:101F100090F83E10402910D00169B1F5804F19D0DA
:101F2000016DA9B3016D012910D1416C5FF0F1027F
:101F300001F4407142EAD11106E0016D0029416CC3
:101F400005D0C9B241F0010100680161704701F09C
:101F5000FE01F9E790F83D102129416C09D0C9B282
:101F600041F0010102681161416B29B1896A49B9E7
:101F700002E001F0FE01F5E7816B0029E6D0896AF5
:101F80000029E3D00068416841F400614160704776
:101F9000FFE7416CF02201F44071CBE710B590F8F7
:101FA0003D10026D22B3026D012A2FD0026D022A6C
:101FB0001DD122292FD0428D0AB1212933D0428D43
:101FC000002A14D1212912D101684A6822F4E06262
:101FD0004A6001680A6842F400720A6000210163E5
:101FE000202280F83D2080F83E10FEF71DFD10BD38
:101FF000C16C0129816C02D0C1F3072108E002689D
:10200000C9B21161016D891C016510BD816CC9B235
:102010000268116104E001680A6842F480720A6093
:10202000016D491CF0E7416A026809781161416A53
:10203000491C4162418D491E418510BD2DE9F84F73
:102040000446006889460B9D01689846174641F48E
:10205000806101602068016841F480710160009531
:102060004FF0011B0022594620460A9B00F0B0F9B0
:102070004FF4007A40B120680068C00501D5C4F86B
:1020800040A00320BDE8F88F216809F0FE00086138
:102090002B46284920460A9A00F0CEF9F0BB20686A
:1020A0004169806900902A4620460A9900F042FA68
:1020B00040B1206C04283AD12068016841F40071D5
:1020C000016034E0FEB2B8F1010F09D02168380A8E
:1020D00008612A4620460A9900F02CFA0028E8D127
:1020E000206806612A4620460A9900F023FA002853
:1020F000DFD12068016841F4807101600095002201
:10210000594620460A9B00F063F90028B3D12168A4
:1021100009F0FF0040F00100086100E007E02B46F5
:10212000044920460A9A00F087F90028AAD0012025
:10213000A8E70000020001002DE9F843044600680A
:102140000D46DDE9089701689846164641F480710E
:1021500001604B4600224FF001112046009700F02D
:1021600037F948B120680068C00502D54FF4007007
:1021700020640320BDE8F883216805F0FE000861B3
:102180003B464A461549204600F056F988B9206872
:102190004169806900903A464946204600F0CAF9F4
:1021A00048B1206C042804D12068016841F4007112
:1021B00001600120DEE7F5B2B8F1010F09D0216816
:1021C000300A08613A464946204600F0B3F9002833
:1021D000E7D1206805610020CCE700000200010083
:1021E00038B50C4690F83D2000212825954302681B
:1021F0000B4605D051699169009180F83C3038BD9B
:10220000556825F480655560E243540700D50121E7
:10221000120601D5828900E0028B80F83C3092B230
:10222000FEF71FFA38BD0000F8B590F83D6004468F
:102230000068416821F4E06141602068002541693F
:102240000091016841F0010101602068016821F4FA
:102250008061016020684168090520D5474F222E22
:1022600048D02A2E46D0616B096849686185618D26
:1022700019B1216C41F004012164416821F400612D
:102280004160606BFEF7E0F8012808D0606B47639F
:10229000606BFEF78DF810B1606B416B8847608D05
:1022A00008B320684169C943490708D40069616AD5
:1022B0000870606A401C6062608D401E6085206806
:1022C0004169C943490608D40069616A0870606AB7
:1022D000401C6062608D401E6085608D18B1206C6E
:1022E00040F004002064206C00B32046BDE8F840B4
:1022F000FFF724BBA16B096849686185618D19B13D
:10230000216C41F004012164416821F400614160C5
:10231000A06BFEF799F80128C1D0A06B4763A06BB2
:10232000FEF746F80028BAD0A06BB6E72A2E06D1F1
:102330002563282084F83D002046FEF76DFD94F8C3
:102340003D10202028290DD0216B222901D0222EDA
:1023500007D1256384F83D0084F83E502046FEF7FF
:102360005BFDF8BD0649E162256384F83D0084F811
:102370003E502046FEF754FBF8BD000081180008CF
:102380000000FFFF70B516460D4604460DE02046DE
:10239000FFF780FB08B1012070BD681C05D0FEF777
:1023A00059F9801BA84207D835B120684069C0435D
:1023B0004007ECD4002070BD002044F8300F2021ED
:1023C0006173A073216941F0200121612073E2E76C
:1023D0002DE9F0471E4690460D460446C1F30747D7
:1023E000DDF8209008E0701C06D0FEF733F9A0EB72
:1023F0000900B0420FD876B12068012F18D080694B
:1024000025EA00000004000C14D000214145EAD068
:102410000020BDE8F087002044F8300F20216173D0
:10242000A073216941F02001216120730120F0E7B0
:102430004069E5E70121E9E72DE9F0479A46914631
:102440000E46044600254FF02008C1F3074725E05B
:1024500020684069C043400514D42068016841F4F5
:102460000071016021686FF480604861256384F821
:102470003D8084F83E50206C40F00400206484F8D5
:102480003C501FE0B9F1FF3F08D0FEF7E3F8A0EBA6
:102490000A0149450CD8B9F1000F09D02068012F75
:1024A00013D0806926EA00000004000C0BD0CFE7AF
:1024B00044F8305F84F80D80A573206940F0200057
:1024C000206125730120BDE8F0874069EAE72DE926
:1024D000F041002590460E460446202717E040694B
:1024E000C043C0060CD454F8301B6FF01000486194
:1024F00044F810596777A577206A2062257717E09E
:10250000FEF7A8F8A0EB0800B04208D83EB120685A
:102510004169C9434906E2D40020BDE8F08144F88E
:10252000305F6773A573206940F020002061257338
:102530000120F2E770B516460D4604460DE0204630
:10254000FFF7A8FA08B1012070BD681C05D0FEF79E
:1025500081F8801BA84207D835B120684069C04384
:102560000006ECD4002070BD002044F8300F20217C
:102570006173A073216941F0200121612073E2E7BA
:1025800010B596B000240F941094119412941394E3
:102590001C2108A81494FDF717FE20216846FDF7BA
:1025A00013FE2948274901609F21C0E9011440F228
:1025B000E731C0E9031444618461FEF7A5FF08B167
:1025C00072B6FEE74FF480500F900FA91E48FEF739
:1025D000DDFF08B172B6FEE71B48FFF7CCF808B183
:1025E00072B6FEE7139413A917481494FEF758FF28
:1025F00008B172B6FEE7602008906420CDE90904B6
:102600000B940C940D94002208A90F480E94FFF728
:102610004FF808B172B6FEE700944FF40050CDE9D0
:102620000440029401940394694607480794FEF716
:102630000DFF08B172B6FEE70348FFF713F816B0B6
:1026400010BD0000002C014088000020FEE7FEE7DE
:1026500070477047016002714371704701790068EB
:10266000FFF7B8B870B505466424287978B1042816
:1026700011D008282868006811D004646420FDF790
:10268000E7FE6879201AC4B20A2CEED270BD286821
:1026900000684463F2E7286800688463EEE7C46377
:1026A000ECE770B505460A24287978B1042811D0E2
:1026B00008282868006811D004646420FDF7C8FE6B
:1026C00068792044C4B2642CEED970BD28680068D3
:1026D0004463F2E7286800688463EEE7C463ECE7CC
:1026E000FEF79CBB30B58FB028216846FDF76CFD26
:1026F00014210AA8FDF768FD012002250490009529
:10270000102005900024CDE9075468460994FEF78F
:10271000F9FC08B172B6FEE70F200A90CDE90B5420
:102720000D9400210AA80E94FEF710FC002801D099
:1027300072B6FEE70FB030BD70470000F0B502681A
:10274000164B174C174D4FF08047984205D0B842B2
:1027500003D0A04201D0A84203D122F070064A68FB
:102760003243984205D0B84203D0A04201D0A842DB
:1027700003D122F44074CA6822434C6922F08002DB
:10278000224302608A68C2620A688262984201D16A
:102790000969016301214161F0BD0000002C014085
:1027A000000400400008004010B501F01F030121A3
:1027B000046A99408C430462016A9A4011430162A1
:1027C00010BD10B5846842EA032224F47F440A4312
:1027D0002243826010BD826822F070020A4342F0F8
:1027E000070181607047000030B5026A22F00102E3
:1027F0000262026A4368846924F073050C682C4302
:1028000022F002058A682A430A4DA8420BD122F021
:102810000805CA6823F440732A434D6922F0040274
:102820001D438B692B4343608461496841630262A5
:1028300030BD0000002C014030B5026A22F01002C9
:102840000262026A436884690D6824F4E64444EA3B
:1028500005248D6822F0200242EA05120B4DA842A1
:102860000ED1CD6822F0800242EA05124D6923F4B0
:10287000406343EA85038D6922F0400243EA850301
:102880004360846149688163026230BD002C01406D
:1028900030B5026A22F480720262036A4268C46937
:1028A00023F4007324F073050C682C438D6843EA0D
:1028B00005230C4DA8420ED1CD6823F4006343EAF2
:1028C00005234D6922F4405242EA05128D6923F432
:1028D000806342EA05124260C4614968C1630362D1
:1028E00030BD0000002C014030B5026A22F4805255
:1028F0000262046A4268C3690D6823F4E64343EA4E
:1029000005238D6824F4005444EA0534064DA8429A
:1029100004D14D6922F4804242EA85124260C361CB
:1029200049680164046230BD002C014010B5036A9F
:10293000046A24F001040462846924F0F00444EA87
:10294000021423F00A020A438461026210BD10B52A
:10295000036A23F0100303628369046A23F470435B
:1029600043EA023224F0A00343EA011182610162CA
:1029700010BDFEE70907090E002804DB00F1E02086
:1029800080F80014704700F00F0000F1E02080F89C
:10299000141D704708B5FEF749FAFFF7A3FE2E484D
:1029A000816941F004018161816901F004010091B4
:1029B000816941F0080181618069284900F00800BF
:1029C000009027484FF48042016026494160002171
:1029D0008160C0E9031241618161C1610162FDF75B
:1029E0005BFF08B172B6FEE7FFF7CAFD1C49A1F113
:1029F0001C00FDF79BFC1A4815231F220E211C38D2
:102A0000FDF7B8FC1620009015480C230B22082176
:102A10001C38FDF78DFC12490A230022543112485C
:102A2000FFF718FE1048FFF719FE41F288340C48F2
:102A30001C38FDF760FC0A481C38FDF73DFC0A48CD
:102A4000FFF72FFE2046FDF703FD0748FFF70AFEBC
:102A50002046FDF7FDFCEAE700100240005400406C
:102A600034000020A08601000000002000000000CB
:102A7000000000000102030406070809000000002E
:102A800001020304A42A000800000020180000002E
:102A900028010008BC2A00081800002018070000C0
:102AA00044010008000000000000000001000000D8
:0C2AB00010000000000000000024F400F2
:04000005080000ED02
:00000001FF
